{
  "contractName": "TurkishFootballCards",
  "abi": [
    {
      "inputs": [],
      "stateMutability": "nonpayable",
      "type": "constructor"
    },
    {
      "anonymous": false,
      "inputs": [
        {
          "indexed": true,
          "internalType": "address",
          "name": "owner",
          "type": "address"
        },
        {
          "indexed": true,
          "internalType": "address",
          "name": "approved",
          "type": "address"
        },
        {
          "indexed": true,
          "internalType": "uint256",
          "name": "tokenId",
          "type": "uint256"
        }
      ],
      "name": "Approval",
      "type": "event"
    },
    {
      "anonymous": false,
      "inputs": [
        {
          "indexed": true,
          "internalType": "address",
          "name": "owner",
          "type": "address"
        },
        {
          "indexed": true,
          "internalType": "address",
          "name": "operator",
          "type": "address"
        },
        {
          "indexed": false,
          "internalType": "bool",
          "name": "approved",
          "type": "bool"
        }
      ],
      "name": "ApprovalForAll",
      "type": "event"
    },
    {
      "anonymous": false,
      "inputs": [
        {
          "indexed": true,
          "internalType": "address",
          "name": "previousOwner",
          "type": "address"
        },
        {
          "indexed": true,
          "internalType": "address",
          "name": "newOwner",
          "type": "address"
        }
      ],
      "name": "OwnershipTransferred",
      "type": "event"
    },
    {
      "anonymous": false,
      "inputs": [
        {
          "indexed": true,
          "internalType": "address",
          "name": "from",
          "type": "address"
        },
        {
          "indexed": true,
          "internalType": "address",
          "name": "to",
          "type": "address"
        },
        {
          "indexed": true,
          "internalType": "uint256",
          "name": "tokenId",
          "type": "uint256"
        }
      ],
      "name": "Transfer",
      "type": "event"
    },
    {
      "anonymous": false,
      "inputs": [
        {
          "indexed": false,
          "internalType": "uint256",
          "name": "id",
          "type": "uint256"
        },
        {
          "indexed": false,
          "internalType": "address",
          "name": "owner",
          "type": "address"
        },
        {
          "indexed": false,
          "internalType": "bool",
          "name": "soldBefore",
          "type": "bool"
        },
        {
          "indexed": false,
          "internalType": "uint256",
          "name": "price",
          "type": "uint256"
        }
      ],
      "name": "nft_created",
      "type": "event"
    },
    {
      "anonymous": false,
      "inputs": [
        {
          "indexed": false,
          "internalType": "uint256",
          "name": "id",
          "type": "uint256"
        },
        {
          "indexed": false,
          "internalType": "address",
          "name": "owner",
          "type": "address"
        },
        {
          "indexed": false,
          "internalType": "bool",
          "name": "soldBefore",
          "type": "bool"
        },
        {
          "indexed": false,
          "internalType": "uint256",
          "name": "price",
          "type": "uint256"
        }
      ],
      "name": "nft_sold",
      "type": "event"
    },
    {
      "inputs": [],
      "name": "TF_owner",
      "outputs": [
        {
          "internalType": "address payable",
          "name": "",
          "type": "address"
        }
      ],
      "stateMutability": "view",
      "type": "function"
    },
    {
      "inputs": [
        {
          "internalType": "address",
          "name": "to",
          "type": "address"
        },
        {
          "internalType": "uint256",
          "name": "tokenId",
          "type": "uint256"
        }
      ],
      "name": "approve",
      "outputs": [],
      "stateMutability": "nonpayable",
      "type": "function"
    },
    {
      "inputs": [
        {
          "internalType": "address",
          "name": "owner",
          "type": "address"
        }
      ],
      "name": "balanceOf",
      "outputs": [
        {
          "internalType": "uint256",
          "name": "",
          "type": "uint256"
        }
      ],
      "stateMutability": "view",
      "type": "function"
    },
    {
      "inputs": [
        {
          "internalType": "uint256",
          "name": "tokenId",
          "type": "uint256"
        }
      ],
      "name": "getApproved",
      "outputs": [
        {
          "internalType": "address",
          "name": "",
          "type": "address"
        }
      ],
      "stateMutability": "view",
      "type": "function"
    },
    {
      "inputs": [
        {
          "internalType": "address",
          "name": "owner",
          "type": "address"
        },
        {
          "internalType": "address",
          "name": "operator",
          "type": "address"
        }
      ],
      "name": "isApprovedForAll",
      "outputs": [
        {
          "internalType": "bool",
          "name": "",
          "type": "bool"
        }
      ],
      "stateMutability": "view",
      "type": "function"
    },
    {
      "inputs": [],
      "name": "mintPrice",
      "outputs": [
        {
          "internalType": "uint256",
          "name": "",
          "type": "uint256"
        }
      ],
      "stateMutability": "view",
      "type": "function"
    },
    {
      "inputs": [],
      "name": "name",
      "outputs": [
        {
          "internalType": "string",
          "name": "",
          "type": "string"
        }
      ],
      "stateMutability": "view",
      "type": "function"
    },
    {
      "inputs": [],
      "name": "nftCount",
      "outputs": [
        {
          "internalType": "uint256",
          "name": "",
          "type": "uint256"
        }
      ],
      "stateMutability": "view",
      "type": "function"
    },
    {
      "inputs": [
        {
          "internalType": "uint256",
          "name": "",
          "type": "uint256"
        }
      ],
      "name": "nfts",
      "outputs": [
        {
          "internalType": "uint256",
          "name": "id",
          "type": "uint256"
        },
        {
          "internalType": "address",
          "name": "owner",
          "type": "address"
        },
        {
          "internalType": "bool",
          "name": "soldBefore",
          "type": "bool"
        },
        {
          "internalType": "uint256",
          "name": "price",
          "type": "uint256"
        }
      ],
      "stateMutability": "view",
      "type": "function"
    },
    {
      "inputs": [],
      "name": "owner",
      "outputs": [
        {
          "internalType": "address",
          "name": "",
          "type": "address"
        }
      ],
      "stateMutability": "view",
      "type": "function"
    },
    {
      "inputs": [
        {
          "internalType": "uint256",
          "name": "tokenId",
          "type": "uint256"
        }
      ],
      "name": "ownerOf",
      "outputs": [
        {
          "internalType": "address",
          "name": "",
          "type": "address"
        }
      ],
      "stateMutability": "view",
      "type": "function"
    },
    {
      "inputs": [],
      "name": "renounceOwnership",
      "outputs": [],
      "stateMutability": "nonpayable",
      "type": "function"
    },
    {
      "inputs": [
        {
          "internalType": "address",
          "name": "from",
          "type": "address"
        },
        {
          "internalType": "address",
          "name": "to",
          "type": "address"
        },
        {
          "internalType": "uint256",
          "name": "tokenId",
          "type": "uint256"
        }
      ],
      "name": "safeTransferFrom",
      "outputs": [],
      "stateMutability": "nonpayable",
      "type": "function"
    },
    {
      "inputs": [
        {
          "internalType": "address",
          "name": "from",
          "type": "address"
        },
        {
          "internalType": "address",
          "name": "to",
          "type": "address"
        },
        {
          "internalType": "uint256",
          "name": "tokenId",
          "type": "uint256"
        },
        {
          "internalType": "bytes",
          "name": "data",
          "type": "bytes"
        }
      ],
      "name": "safeTransferFrom",
      "outputs": [],
      "stateMutability": "nonpayable",
      "type": "function"
    },
    {
      "inputs": [
        {
          "internalType": "address",
          "name": "operator",
          "type": "address"
        },
        {
          "internalType": "bool",
          "name": "approved",
          "type": "bool"
        }
      ],
      "name": "setApprovalForAll",
      "outputs": [],
      "stateMutability": "nonpayable",
      "type": "function"
    },
    {
      "inputs": [
        {
          "internalType": "bytes4",
          "name": "interfaceId",
          "type": "bytes4"
        }
      ],
      "name": "supportsInterface",
      "outputs": [
        {
          "internalType": "bool",
          "name": "",
          "type": "bool"
        }
      ],
      "stateMutability": "view",
      "type": "function"
    },
    {
      "inputs": [],
      "name": "symbol",
      "outputs": [
        {
          "internalType": "string",
          "name": "",
          "type": "string"
        }
      ],
      "stateMutability": "view",
      "type": "function"
    },
    {
      "inputs": [
        {
          "internalType": "uint256",
          "name": "tokenId",
          "type": "uint256"
        }
      ],
      "name": "tokenURI",
      "outputs": [
        {
          "internalType": "string",
          "name": "",
          "type": "string"
        }
      ],
      "stateMutability": "view",
      "type": "function"
    },
    {
      "inputs": [
        {
          "internalType": "address",
          "name": "from",
          "type": "address"
        },
        {
          "internalType": "address",
          "name": "to",
          "type": "address"
        },
        {
          "internalType": "uint256",
          "name": "tokenId",
          "type": "uint256"
        }
      ],
      "name": "transferFrom",
      "outputs": [],
      "stateMutability": "nonpayable",
      "type": "function"
    },
    {
      "inputs": [
        {
          "internalType": "address",
          "name": "newOwner",
          "type": "address"
        }
      ],
      "name": "transferOwnership",
      "outputs": [],
      "stateMutability": "nonpayable",
      "type": "function"
    },
    {
      "inputs": [
        {
          "internalType": "uint256",
          "name": "_nft_price",
          "type": "uint256"
        }
      ],
      "name": "mint",
      "outputs": [],
      "stateMutability": "payable",
      "type": "function"
    },
    {
      "inputs": [
        {
          "internalType": "uint256",
          "name": "_tokenID",
          "type": "uint256"
        }
      ],
      "name": "purchaseCard",
      "outputs": [],
      "stateMutability": "payable",
      "type": "function"
    }
  ],
  "bytecode": "0x608060405266071afd498d00006009556000600a553480156200002157600080fd5b506040518060400160405280600f81526020017f5475726b697368466f6f7462616c6c00000000000000000000000000000000008152506040518060400160405280600a81526020017f53696d706c654d696e740000000000000000000000000000000000000000000081525081600090816200009f91906200047f565b508060019081620000b191906200047f565b5050506001600681905550620000dc620000d06200013760201b60201c565b6200013f60201b60201c565b7361cf35200b6998660f4b442ecb85151f9ca98492600860006101000a81548173ffffffffffffffffffffffffffffffffffffffff021916908373ffffffffffffffffffffffffffffffffffffffff16021790555062000566565b600033905090565b6000600760009054906101000a900473ffffffffffffffffffffffffffffffffffffffff16905081600760006101000a81548173ffffffffffffffffffffffffffffffffffffffff021916908373ffffffffffffffffffffffffffffffffffffffff1602179055508173ffffffffffffffffffffffffffffffffffffffff168173ffffffffffffffffffffffffffffffffffffffff167f8be0079c531659141344cd1fd0a4f28419497f9722a3daafe3b4186f6b6457e060405160405180910390a35050565b600081519050919050565b7f4e487b7100000000000000000000000000000000000000000000000000000000600052604160045260246000fd5b7f4e487b7100000000000000000000000000000000000000000000000000000000600052602260045260246000fd5b600060028204905060018216806200028757607f821691505b6020821081036200029d576200029c6200023f565b5b50919050565b60008190508160005260206000209050919050565b60006020601f8301049050919050565b600082821b905092915050565b600060088302620003077fffffffffffffffffffffffffffffffffffffffffffffffffffffffffffffffff82620002c8565b620003138683620002c8565b95508019841693508086168417925050509392505050565b6000819050919050565b6000819050919050565b6000620003606200035a62000354846200032b565b62000335565b6200032b565b9050919050565b6000819050919050565b6200037c836200033f565b620003946200038b8262000367565b848454620002d5565b825550505050565b600090565b620003ab6200039c565b620003b881848462000371565b505050565b5b81811015620003e057620003d4600082620003a1565b600181019050620003be565b5050565b601f8211156200042f57620003f981620002a3565b6200040484620002b8565b8101602085101562000414578190505b6200042c6200042385620002b8565b830182620003bd565b50505b505050565b600082821c905092915050565b6000620004546000198460080262000434565b1980831691505092915050565b60006200046f838362000441565b9150826002028217905092915050565b6200048a8262000205565b67ffffffffffffffff811115620004a657620004a562000210565b5b620004b282546200026e565b620004bf828285620003e4565b600060209050601f831160018114620004f75760008415620004e2578287015190505b620004ee858262000461565b8655506200055e565b601f1984166200050786620002a3565b60005b8281101562000531578489015182556001820191506020850194506020810190506200050a565b868310156200055157848901516200054d601f89168262000441565b8355505b6001600288020188555050505b505050505050565b61348f80620005766000396000f3fe6080604052600436106101355760003560e01c8063715018a6116100ab578063a54447aa1161006f578063a54447aa1461041c578063b88d4fde14610438578063c45c20a114610461578063c87b56dd1461048c578063e985e9c5146104c9578063f2fde38b1461050657610135565b8063715018a61461036a5780638da5cb5b1461038157806395d89b41146103ac578063a0712d68146103d7578063a22cb465146103f357610135565b806323b872dd116100fd57806323b872dd14610233578063265aa6211461025c57806342842e0e1461029c5780636352211e146102c55780636817c76c1461030257806370a082311461032d57610135565b806301ffc9a71461013a57806306fdde0314610177578063081812fc146101a2578063095ea7b3146101df5780630af2c6ca14610208575b600080fd5b34801561014657600080fd5b50610161600480360381019061015c9190612365565b61052f565b60405161016e91906123ad565b60405180910390f35b34801561018357600080fd5b5061018c610611565b6040516101999190612458565b60405180910390f35b3480156101ae57600080fd5b506101c960048036038101906101c491906124b0565b6106a3565b6040516101d6919061251e565b60405180910390f35b3480156101eb57600080fd5b5061020660048036038101906102019190612565565b6106e9565b005b34801561021457600080fd5b5061021d610800565b60405161022a91906125b4565b60405180910390f35b34801561023f57600080fd5b5061025a600480360381019061025591906125cf565b610806565b005b34801561026857600080fd5b50610283600480360381019061027e91906124b0565b610866565b6040516102939493929190612622565b60405180910390f35b3480156102a857600080fd5b506102c360048036038101906102be91906125cf565b6108c3565b005b3480156102d157600080fd5b506102ec60048036038101906102e791906124b0565b6108e3565b6040516102f9919061251e565b60405180910390f35b34801561030e57600080fd5b50610317610969565b60405161032491906125b4565b60405180910390f35b34801561033957600080fd5b50610354600480360381019061034f9190612667565b61096f565b60405161036191906125b4565b60405180910390f35b34801561037657600080fd5b5061037f610a26565b005b34801561038d57600080fd5b50610396610a3a565b6040516103a3919061251e565b60405180910390f35b3480156103b857600080fd5b506103c1610a64565b6040516103ce9190612458565b60405180910390f35b6103f160048036038101906103ec91906124b0565b610af6565b005b3480156103ff57600080fd5b5061041a600480360381019061041591906126c0565b610d69565b005b610436600480360381019061043191906124b0565b610d7f565b005b34801561044457600080fd5b5061045f600480360381019061045a9190612835565b6110c0565b005b34801561046d57600080fd5b50610476611122565b60405161048391906128d9565b60405180910390f35b34801561049857600080fd5b506104b360048036038101906104ae91906124b0565b611148565b6040516104c09190612458565b60405180910390f35b3480156104d557600080fd5b506104f060048036038101906104eb91906128f4565b6111b0565b6040516104fd91906123ad565b60405180910390f35b34801561051257600080fd5b5061052d60048036038101906105289190612667565b611244565b005b60007f80ac58cd000000000000000000000000000000000000000000000000000000007bffffffffffffffffffffffffffffffffffffffffffffffffffffffff1916827bffffffffffffffffffffffffffffffffffffffffffffffffffffffff191614806105fa57507f5b5e139f000000000000000000000000000000000000000000000000000000007bffffffffffffffffffffffffffffffffffffffffffffffffffffffff1916827bffffffffffffffffffffffffffffffffffffffffffffffffffffffff1916145b8061060a5750610609826112c7565b5b9050919050565b60606000805461062090612963565b80601f016020809104026020016040519081016040528092919081815260200182805461064c90612963565b80156106995780601f1061066e57610100808354040283529160200191610699565b820191906000526020600020905b81548152906001019060200180831161067c57829003601f168201915b5050505050905090565b60006106ae82611331565b6004600083815260200190815260200160002060009054906101000a900473ffffffffffffffffffffffffffffffffffffffff169050919050565b60006106f4826108e3565b90508073ffffffffffffffffffffffffffffffffffffffff168373ffffffffffffffffffffffffffffffffffffffff1603610764576040517f08c379a000000000000000000000000000000000000000000000000000000000815260040161075b90612a06565b60405180910390fd5b8073ffffffffffffffffffffffffffffffffffffffff1661078361137c565b73ffffffffffffffffffffffffffffffffffffffff1614806107b257506107b1816107ac61137c565b6111b0565b5b6107f1576040517f08c379a00000000000000000000000000000000000000000000000000000000081526004016107e890612a98565b60405180910390fd5b6107fb8383611384565b505050565b600a5481565b61081761081161137c565b8261143d565b610856576040517f08c379a000000000000000000000000000000000000000000000000000000000815260040161084d90612b2a565b60405180910390fd5b6108618383836114d2565b505050565b600b6020528060005260406000206000915090508060000154908060010160009054906101000a900473ffffffffffffffffffffffffffffffffffffffff16908060010160149054906101000a900460ff16908060020154905084565b6108de838383604051806020016040528060008152506110c0565b505050565b6000806108ef836117cb565b9050600073ffffffffffffffffffffffffffffffffffffffff168173ffffffffffffffffffffffffffffffffffffffff1603610960576040517f08c379a000000000000000000000000000000000000000000000000000000000815260040161095790612b96565b60405180910390fd5b80915050919050565b60095481565b60008073ffffffffffffffffffffffffffffffffffffffff168273ffffffffffffffffffffffffffffffffffffffff16036109df576040517f08c379a00000000000000000000000000000000000000000000000000000000081526004016109d690612c28565b60405180910390fd5b600360008373ffffffffffffffffffffffffffffffffffffffff1673ffffffffffffffffffffffffffffffffffffffff168152602001908152602001600020549050919050565b610a2e611808565b610a386000611886565b565b6000600760009054906101000a900473ffffffffffffffffffffffffffffffffffffffff16905090565b606060018054610a7390612963565b80601f0160208091040260200160405190810160405280929190818152602001828054610a9f90612963565b8015610aec5780601f10610ac157610100808354040283529160200191610aec565b820191906000526020600020905b815481529060010190602001808311610acf57829003601f168201915b5050505050905090565b610afe611808565b600860009054906101000a900473ffffffffffffffffffffffffffffffffffffffff1673ffffffffffffffffffffffffffffffffffffffff163373ffffffffffffffffffffffffffffffffffffffff1614610b5857600080fd5b600954341015610b6757600080fd5b6040518060800160405280600a548152602001600860009054906101000a900473ffffffffffffffffffffffffffffffffffffffff1673ffffffffffffffffffffffffffffffffffffffff16815260200160001515815260200182815250600b6000600a5481526020019081526020016000206000820151816000015560208201518160010160006101000a81548173ffffffffffffffffffffffffffffffffffffffff021916908373ffffffffffffffffffffffffffffffffffffffff16021790555060408201518160010160146101000a81548160ff021916908315150217905550606082015181600201559050507fd8747b8466a5a22cc8b22918a2085d06c352e89792fb168a3274c5a617609f00600a54600860009054906101000a900473ffffffffffffffffffffffffffffffffffffffff16600084604051610cb29493929190612ca7565b60405180910390a16000600a549050600a6000815480929190610cd490612d1b565b9190505550610d05600860009054906101000a900473ffffffffffffffffffffffffffffffffffffffff168261194c565b7fd8747b8466a5a22cc8b22918a2085d06c352e89792fb168a3274c5a617609f0081600860009054906101000a900473ffffffffffffffffffffffffffffffffffffffff16600085604051610d5d9493929190612ca7565b60405180910390a15050565b610d7b610d7461137c565b838361196a565b5050565b60008110158015610d925750600a548111155b610d9b57600080fd5b6000610da6826108e3565b90506000600b6000848152602001908152602001600020604051806080016040529081600082015481526020016001820160009054906101000a900473ffffffffffffffffffffffffffffffffffffffff1673ffffffffffffffffffffffffffffffffffffffff1673ffffffffffffffffffffffffffffffffffffffff1681526020016001820160149054906101000a900460ff161515151581526020016002820154815250509050600860009054906101000a900473ffffffffffffffffffffffffffffffffffffffff1673ffffffffffffffffffffffffffffffffffffffff168273ffffffffffffffffffffffffffffffffffffffff1614610edf576040517f08c379a0000000000000000000000000000000000000000000000000000000008152600401610ed690612dfb565b60405180910390fd5b8060600151341015610f26576040517f08c379a0000000000000000000000000000000000000000000000000000000008152600401610f1d90612e67565b60405180910390fd5b600860009054906101000a900473ffffffffffffffffffffffffffffffffffffffff1673ffffffffffffffffffffffffffffffffffffffff166108fc349081150290604051600060405180830381858888f19350505050158015610f8e573d6000803e3d6000fd5b50610f9a8233856108c3565b33816020019073ffffffffffffffffffffffffffffffffffffffff16908173ffffffffffffffffffffffffffffffffffffffff1681525050600181604001901515908115158152505080600b60008581526020019081526020016000206000820151816000015560208201518160010160006101000a81548173ffffffffffffffffffffffffffffffffffffffff021916908373ffffffffffffffffffffffffffffffffffffffff16021790555060408201518160010160146101000a81548160ff021916908315150217905550606082015181600201559050507fe6f937eba12ea654073a42ae5c30ac6dfbd7fad6d1a1b7d1b36e4df368e979e1838260200151600184606001516040516110b39493929190612622565b60405180910390a1505050565b6110d16110cb61137c565b8361143d565b611110576040517f08c379a000000000000000000000000000000000000000000000000000000000815260040161110790612b2a565b60405180910390fd5b61111c84848484611ad6565b50505050565b600860009054906101000a900473ffffffffffffffffffffffffffffffffffffffff1681565b606061115382611331565b600061115d611b32565b9050600081511161117d57604051806020016040528060008152506111a8565b8061118784611b49565b604051602001611198929190612ec3565b6040516020818303038152906040525b915050919050565b6000600560008473ffffffffffffffffffffffffffffffffffffffff1673ffffffffffffffffffffffffffffffffffffffff16815260200190815260200160002060008373ffffffffffffffffffffffffffffffffffffffff1673ffffffffffffffffffffffffffffffffffffffff16815260200190815260200160002060009054906101000a900460ff16905092915050565b61124c611808565b600073ffffffffffffffffffffffffffffffffffffffff168173ffffffffffffffffffffffffffffffffffffffff16036112bb576040517f08c379a00000000000000000000000000000000000000000000000000000000081526004016112b290612f59565b60405180910390fd5b6112c481611886565b50565b60007f01ffc9a7000000000000000000000000000000000000000000000000000000007bffffffffffffffffffffffffffffffffffffffffffffffffffffffff1916827bffffffffffffffffffffffffffffffffffffffffffffffffffffffff1916149050919050565b61133a81611c17565b611379576040517f08c379a000000000000000000000000000000000000000000000000000000000815260040161137090612b96565b60405180910390fd5b50565b600033905090565b816004600083815260200190815260200160002060006101000a81548173ffffffffffffffffffffffffffffffffffffffff021916908373ffffffffffffffffffffffffffffffffffffffff160217905550808273ffffffffffffffffffffffffffffffffffffffff166113f7836108e3565b73ffffffffffffffffffffffffffffffffffffffff167f8c5be1e5ebec7d5bd14f71427d1e84f3dd0314c0f7b2291e5b200ac8c7c3b92560405160405180910390a45050565b600080611449836108e3565b90508073ffffffffffffffffffffffffffffffffffffffff168473ffffffffffffffffffffffffffffffffffffffff16148061148b575061148a81856111b0565b5b806114c957508373ffffffffffffffffffffffffffffffffffffffff166114b1846106a3565b73ffffffffffffffffffffffffffffffffffffffff16145b91505092915050565b8273ffffffffffffffffffffffffffffffffffffffff166114f2826108e3565b73ffffffffffffffffffffffffffffffffffffffff1614611548576040517f08c379a000000000000000000000000000000000000000000000000000000000815260040161153f90612feb565b60405180910390fd5b600073ffffffffffffffffffffffffffffffffffffffff168273ffffffffffffffffffffffffffffffffffffffff16036115b7576040517f08c379a00000000000000000000000000000000000000000000000000000000081526004016115ae9061307d565b60405180910390fd5b6115c48383836001611c58565b8273ffffffffffffffffffffffffffffffffffffffff166115e4826108e3565b73ffffffffffffffffffffffffffffffffffffffff161461163a576040517f08c379a000000000000000000000000000000000000000000000000000000000815260040161163190612feb565b60405180910390fd5b6004600082815260200190815260200160002060006101000a81549073ffffffffffffffffffffffffffffffffffffffff02191690556001600360008573ffffffffffffffffffffffffffffffffffffffff1673ffffffffffffffffffffffffffffffffffffffff168152602001908152602001600020600082825403925050819055506001600360008473ffffffffffffffffffffffffffffffffffffffff1673ffffffffffffffffffffffffffffffffffffffff16815260200190815260200160002060008282540192505081905550816002600083815260200190815260200160002060006101000a81548173ffffffffffffffffffffffffffffffffffffffff021916908373ffffffffffffffffffffffffffffffffffffffff160217905550808273ffffffffffffffffffffffffffffffffffffffff168473ffffffffffffffffffffffffffffffffffffffff167fddf252ad1be2c89b69c2b068fc378daa952ba7f163c4a11628f55a4df523b3ef60405160405180910390a46117c68383836001611d7e565b505050565b60006002600083815260200190815260200160002060009054906101000a900473ffffffffffffffffffffffffffffffffffffffff169050919050565b61181061137c565b73ffffffffffffffffffffffffffffffffffffffff1661182e610a3a565b73ffffffffffffffffffffffffffffffffffffffff1614611884576040517f08c379a000000000000000000000000000000000000000000000000000000000815260040161187b906130e9565b60405180910390fd5b565b6000600760009054906101000a900473ffffffffffffffffffffffffffffffffffffffff16905081600760006101000a81548173ffffffffffffffffffffffffffffffffffffffff021916908373ffffffffffffffffffffffffffffffffffffffff1602179055508173ffffffffffffffffffffffffffffffffffffffff168173ffffffffffffffffffffffffffffffffffffffff167f8be0079c531659141344cd1fd0a4f28419497f9722a3daafe3b4186f6b6457e060405160405180910390a35050565b611966828260405180602001604052806000815250611d84565b5050565b8173ffffffffffffffffffffffffffffffffffffffff168373ffffffffffffffffffffffffffffffffffffffff16036119d8576040517f08c379a00000000000000000000000000000000000000000000000000000000081526004016119cf90613155565b60405180910390fd5b80600560008573ffffffffffffffffffffffffffffffffffffffff1673ffffffffffffffffffffffffffffffffffffffff16815260200190815260200160002060008473ffffffffffffffffffffffffffffffffffffffff1673ffffffffffffffffffffffffffffffffffffffff16815260200190815260200160002060006101000a81548160ff0219169083151502179055508173ffffffffffffffffffffffffffffffffffffffff168373ffffffffffffffffffffffffffffffffffffffff167f17307eab39ab6107e8899845ad3d59bd9653f200f220920489ca2b5937696c3183604051611ac991906123ad565b60405180910390a3505050565b611ae18484846114d2565b611aed84848484611ddf565b611b2c576040517f08c379a0000000000000000000000000000000000000000000000000000000008152600401611b23906131e7565b60405180910390fd5b50505050565b606060405180602001604052806000815250905090565b606060006001611b5884611f66565b01905060008167ffffffffffffffff811115611b7757611b7661270a565b5b6040519080825280601f01601f191660200182016040528015611ba95781602001600182028036833780820191505090505b509050600082602001820190505b600115611c0c578080600190039150507f3031323334353637383961626364656600000000000000000000000000000000600a86061a8153600a8581611c0057611bff613207565b5b04945060008503611bb7575b819350505050919050565b60008073ffffffffffffffffffffffffffffffffffffffff16611c39836117cb565b73ffffffffffffffffffffffffffffffffffffffff1614159050919050565b6001811115611d7857600073ffffffffffffffffffffffffffffffffffffffff168473ffffffffffffffffffffffffffffffffffffffff1614611cec5780600360008673ffffffffffffffffffffffffffffffffffffffff1673ffffffffffffffffffffffffffffffffffffffff1681526020019081526020016000206000828254611ce49190613236565b925050819055505b600073ffffffffffffffffffffffffffffffffffffffff168373ffffffffffffffffffffffffffffffffffffffff1614611d775780600360008573ffffffffffffffffffffffffffffffffffffffff1673ffffffffffffffffffffffffffffffffffffffff1681526020019081526020016000206000828254611d6f919061326a565b925050819055505b5b50505050565b50505050565b611d8e83836120b9565b611d9b6000848484611ddf565b611dda576040517f08c379a0000000000000000000000000000000000000000000000000000000008152600401611dd1906131e7565b60405180910390fd5b505050565b6000611e008473ffffffffffffffffffffffffffffffffffffffff166122d6565b15611f59578373ffffffffffffffffffffffffffffffffffffffff1663150b7a02611e2961137c565b8786866040518563ffffffff1660e01b8152600401611e4b94939291906132f3565b6020604051808303816000875af1925050508015611e8757506040513d601f19601f82011682018060405250810190611e849190613354565b60015b611f09573d8060008114611eb7576040519150601f19603f3d011682016040523d82523d6000602084013e611ebc565b606091505b506000815103611f01576040517f08c379a0000000000000000000000000000000000000000000000000000000008152600401611ef8906131e7565b60405180910390fd5b805181602001fd5b63150b7a0260e01b7bffffffffffffffffffffffffffffffffffffffffffffffffffffffff1916817bffffffffffffffffffffffffffffffffffffffffffffffffffffffff191614915050611f5e565b600190505b949350505050565b600080600090507a184f03e93ff9f4daa797ed6e38ed64bf6a1f0100000000000000008310611fc4577a184f03e93ff9f4daa797ed6e38ed64bf6a1f0100000000000000008381611fba57611fb9613207565b5b0492506040810190505b6d04ee2d6d415b85acef81000000008310612001576d04ee2d6d415b85acef81000000008381611ff757611ff6613207565b5b0492506020810190505b662386f26fc10000831061203057662386f26fc10000838161202657612025613207565b5b0492506010810190505b6305f5e1008310612059576305f5e100838161204f5761204e613207565b5b0492506008810190505b612710831061207e57612710838161207457612073613207565b5b0492506004810190505b606483106120a1576064838161209757612096613207565b5b0492506002810190505b600a83106120b0576001810190505b80915050919050565b600073ffffffffffffffffffffffffffffffffffffffff168273ffffffffffffffffffffffffffffffffffffffff1603612128576040517f08c379a000000000000000000000000000000000000000000000000000000000815260040161211f906133cd565b60405180910390fd5b61213181611c17565b15612171576040517f08c379a000000000000000000000000000000000000000000000000000000000815260040161216890613439565b60405180910390fd5b61217f600083836001611c58565b61218881611c17565b156121c8576040517f08c379a00000000000000000000000000000000000000000000000000000000081526004016121bf90613439565b60405180910390fd5b6001600360008473ffffffffffffffffffffffffffffffffffffffff1673ffffffffffffffffffffffffffffffffffffffff16815260200190815260200160002060008282540192505081905550816002600083815260200190815260200160002060006101000a81548173ffffffffffffffffffffffffffffffffffffffff021916908373ffffffffffffffffffffffffffffffffffffffff160217905550808273ffffffffffffffffffffffffffffffffffffffff16600073ffffffffffffffffffffffffffffffffffffffff167fddf252ad1be2c89b69c2b068fc378daa952ba7f163c4a11628f55a4df523b3ef60405160405180910390a46122d2600083836001611d7e565b5050565b6000808273ffffffffffffffffffffffffffffffffffffffff163b119050919050565b6000604051905090565b600080fd5b600080fd5b60007fffffffff0000000000000000000000000000000000000000000000000000000082169050919050565b6123428161230d565b811461234d57600080fd5b50565b60008135905061235f81612339565b92915050565b60006020828403121561237b5761237a612303565b5b600061238984828501612350565b91505092915050565b60008115159050919050565b6123a781612392565b82525050565b60006020820190506123c2600083018461239e565b92915050565b600081519050919050565b600082825260208201905092915050565b60005b838110156124025780820151818401526020810190506123e7565b60008484015250505050565b6000601f19601f8301169050919050565b600061242a826123c8565b61243481856123d3565b93506124448185602086016123e4565b61244d8161240e565b840191505092915050565b60006020820190508181036000830152612472818461241f565b905092915050565b6000819050919050565b61248d8161247a565b811461249857600080fd5b50565b6000813590506124aa81612484565b92915050565b6000602082840312156124c6576124c5612303565b5b60006124d48482850161249b565b91505092915050565b600073ffffffffffffffffffffffffffffffffffffffff82169050919050565b6000612508826124dd565b9050919050565b612518816124fd565b82525050565b6000602082019050612533600083018461250f565b92915050565b612542816124fd565b811461254d57600080fd5b50565b60008135905061255f81612539565b92915050565b6000806040838503121561257c5761257b612303565b5b600061258a85828601612550565b925050602061259b8582860161249b565b9150509250929050565b6125ae8161247a565b82525050565b60006020820190506125c960008301846125a5565b92915050565b6000806000606084860312156125e8576125e7612303565b5b60006125f686828701612550565b935050602061260786828701612550565b92505060406126188682870161249b565b9150509250925092565b600060808201905061263760008301876125a5565b612644602083018661250f565b612651604083018561239e565b61265e60608301846125a5565b95945050505050565b60006020828403121561267d5761267c612303565b5b600061268b84828501612550565b91505092915050565b61269d81612392565b81146126a857600080fd5b50565b6000813590506126ba81612694565b92915050565b600080604083850312156126d7576126d6612303565b5b60006126e585828601612550565b92505060206126f6858286016126ab565b9150509250929050565b600080fd5b600080fd5b7f4e487b7100000000000000000000000000000000000000000000000000000000600052604160045260246000fd5b6127428261240e565b810181811067ffffffffffffffff821117156127615761276061270a565b5b80604052505050565b60006127746122f9565b90506127808282612739565b919050565b600067ffffffffffffffff8211156127a05761279f61270a565b5b6127a98261240e565b9050602081019050919050565b82818337600083830152505050565b60006127d86127d384612785565b61276a565b9050828152602081018484840111156127f4576127f3612705565b5b6127ff8482856127b6565b509392505050565b600082601f83011261281c5761281b612700565b5b813561282c8482602086016127c5565b91505092915050565b6000806000806080858703121561284f5761284e612303565b5b600061285d87828801612550565b945050602061286e87828801612550565b935050604061287f8782880161249b565b925050606085013567ffffffffffffffff8111156128a05761289f612308565b5b6128ac87828801612807565b91505092959194509250565b60006128c3826124dd565b9050919050565b6128d3816128b8565b82525050565b60006020820190506128ee60008301846128ca565b92915050565b6000806040838503121561290b5761290a612303565b5b600061291985828601612550565b925050602061292a85828601612550565b9150509250929050565b7f4e487b7100000000000000000000000000000000000000000000000000000000600052602260045260246000fd5b6000600282049050600182168061297b57607f821691505b60208210810361298e5761298d612934565b5b50919050565b7f4552433732313a20617070726f76616c20746f2063757272656e74206f776e6560008201527f7200000000000000000000000000000000000000000000000000000000000000602082015250565b60006129f06021836123d3565b91506129fb82612994565b604082019050919050565b60006020820190508181036000830152612a1f816129e3565b9050919050565b7f4552433732313a20617070726f76652063616c6c6572206973206e6f7420746f60008201527f6b656e206f776e6572206f7220617070726f76656420666f7220616c6c000000602082015250565b6000612a82603d836123d3565b9150612a8d82612a26565b604082019050919050565b60006020820190508181036000830152612ab181612a75565b9050919050565b7f4552433732313a2063616c6c6572206973206e6f7420746f6b656e206f776e6560008201527f72206f7220617070726f76656400000000000000000000000000000000000000602082015250565b6000612b14602d836123d3565b9150612b1f82612ab8565b604082019050919050565b60006020820190508181036000830152612b4381612b07565b9050919050565b7f4552433732313a20696e76616c696420746f6b656e2049440000000000000000600082015250565b6000612b806018836123d3565b9150612b8b82612b4a565b602082019050919050565b60006020820190508181036000830152612baf81612b73565b9050919050565b7f4552433732313a2061646472657373207a65726f206973206e6f74206120766160008201527f6c6964206f776e65720000000000000000000000000000000000000000000000602082015250565b6000612c126029836123d3565b9150612c1d82612bb6565b604082019050919050565b60006020820190508181036000830152612c4181612c05565b9050919050565b6000819050919050565b6000612c6d612c68612c63846124dd565b612c48565b6124dd565b9050919050565b6000612c7f82612c52565b9050919050565b6000612c9182612c74565b9050919050565b612ca181612c86565b82525050565b6000608082019050612cbc60008301876125a5565b612cc96020830186612c98565b612cd6604083018561239e565b612ce360608301846125a5565b95945050505050565b7f4e487b7100000000000000000000000000000000000000000000000000000000600052601160045260246000fd5b6000612d268261247a565b91507fffffffffffffffffffffffffffffffffffffffffffffffffffffffffffffffff8203612d5857612d57612cec565b5b600182019050919050565b7f496e76616c6964206f776e65722c206e667420646f6573206e6f742062656c6f60008201527f6e6720746f20746865205475726b69736820666f6f7462616c6c206173736f6360208201527f696174696f6e0000000000000000000000000000000000000000000000000000604082015250565b6000612de56046836123d3565b9150612df082612d63565b606082019050919050565b60006020820190508181036000830152612e1481612dd8565b9050919050565b7f556e73756666696369656e742066756e64730000000000000000000000000000600082015250565b6000612e516012836123d3565b9150612e5c82612e1b565b602082019050919050565b60006020820190508181036000830152612e8081612e44565b9050919050565b600081905092915050565b6000612e9d826123c8565b612ea78185612e87565b9350612eb78185602086016123e4565b80840191505092915050565b6000612ecf8285612e92565b9150612edb8284612e92565b91508190509392505050565b7f4f776e61626c653a206e6577206f776e657220697320746865207a65726f206160008201527f6464726573730000000000000000000000000000000000000000000000000000602082015250565b6000612f436026836123d3565b9150612f4e82612ee7565b604082019050919050565b60006020820190508181036000830152612f7281612f36565b9050919050565b7f4552433732313a207472616e736665722066726f6d20696e636f72726563742060008201527f6f776e6572000000000000000000000000000000000000000000000000000000602082015250565b6000612fd56025836123d3565b9150612fe082612f79565b604082019050919050565b6000602082019050818103600083015261300481612fc8565b9050919050565b7f4552433732313a207472616e7366657220746f20746865207a65726f2061646460008201527f7265737300000000000000000000000000000000000000000000000000000000602082015250565b60006130676024836123d3565b91506130728261300b565b604082019050919050565b600060208201905081810360008301526130968161305a565b9050919050565b7f4f776e61626c653a2063616c6c6572206973206e6f7420746865206f776e6572600082015250565b60006130d36020836123d3565b91506130de8261309d565b602082019050919050565b60006020820190508181036000830152613102816130c6565b9050919050565b7f4552433732313a20617070726f766520746f2063616c6c657200000000000000600082015250565b600061313f6019836123d3565b915061314a82613109565b602082019050919050565b6000602082019050818103600083015261316e81613132565b9050919050565b7f4552433732313a207472616e7366657220746f206e6f6e20455243373231526560008201527f63656976657220696d706c656d656e7465720000000000000000000000000000602082015250565b60006131d16032836123d3565b91506131dc82613175565b604082019050919050565b60006020820190508181036000830152613200816131c4565b9050919050565b7f4e487b7100000000000000000000000000000000000000000000000000000000600052601260045260246000fd5b60006132418261247a565b915061324c8361247a565b925082820390508181111561326457613263612cec565b5b92915050565b60006132758261247a565b91506132808361247a565b925082820190508082111561329857613297612cec565b5b92915050565b600081519050919050565b600082825260208201905092915050565b60006132c58261329e565b6132cf81856132a9565b93506132df8185602086016123e4565b6132e88161240e565b840191505092915050565b6000608082019050613308600083018761250f565b613315602083018661250f565b61332260408301856125a5565b818103606083015261333481846132ba565b905095945050505050565b60008151905061334e81612339565b92915050565b60006020828403121561336a57613369612303565b5b60006133788482850161333f565b91505092915050565b7f4552433732313a206d696e7420746f20746865207a65726f2061646472657373600082015250565b60006133b76020836123d3565b91506133c282613381565b602082019050919050565b600060208201905081810360008301526133e6816133aa565b9050919050565b7f4552433732313a20746f6b656e20616c7265616479206d696e74656400000000600082015250565b6000613423601c836123d3565b915061342e826133ed565b602082019050919050565b6000602082019050818103600083015261345281613416565b905091905056fea2646970667358221220d007fa4424eb06078b080a26787b9ccafc810431934df4debd4ec0819a5b17de64736f6c63430008110033",
  "immutableReferences": {},
  "source": "// SPDX-License-Identifier: MIT\r\npragma solidity >=0.4.22 <0.9.0;\r\n\r\nimport \"@openzeppelin/contracts/token/ERC721/ERC721.sol\";\r\nimport \"@openzeppelin/contracts//security/ReentrancyGuard.sol\";\r\nimport \"@openzeppelin/contracts/access/Ownable.sol\";\r\n\r\n\r\n/// @notice Smart Contract for the nft marketplace of the turkish football assocition\r\n/// @dev Must receive payments for nft's (sell nfts), verify their creators id, create nfts\r\n\r\ncontract TurkishFootballCards is ERC721, ReentrancyGuard, Ownable\r\n{\r\n    address payable public TF_owner;\r\n    uint256 public mintPrice = 0.002 ether;\r\n    uint256 public nftCount = 0;\r\n    mapping(uint256 => card) public nfts;\r\n\r\n    \r\n    struct card\r\n    {\r\n        uint256 id;\r\n        address owner;\r\n        bool soldBefore; \r\n        uint256 price;\r\n    }\r\n\r\n    event nft_sold\r\n    (\r\n        uint256 id,\r\n        address owner,\r\n        bool soldBefore,\r\n        uint256 price\r\n    );\r\n\r\n    event nft_created(\r\n        uint256 id,\r\n        address owner,\r\n        bool soldBefore,\r\n        uint256 price\r\n    );\r\n\r\n\r\n    constructor() ERC721('TurkishFootball','SimpleMint')\r\n    {\r\n        TF_owner = payable(0x61cf35200B6998660f4b442Ecb85151F9CA98492);\r\n        //nftMinter = 'address of the turkish football federation';     \r\n        //call the constructor of the ERC721\r\n    }\r\n\r\n    \r\n    function mint(uint256 _nft_price) external onlyOwner payable\r\n    {\r\n        //this funtion is responsible for the minting of new coins\r\n        //only the Turkish Football federation is supposed to be able to mint\r\n        require(msg.sender == TF_owner);\r\n        //the message value should be equal to the minting cost\r\n        require(msg.value >= mintPrice);\r\n        //creating the new nft in the marketplace\r\n        \r\n        nfts[nftCount] = card({id: nftCount, owner: TF_owner, soldBefore: false, price: _nft_price});\r\n        emit nft_created(nftCount, TF_owner, false, _nft_price); //event of the creation on the marketplace\r\n\r\n        //actually creating the nft in the\r\n        uint256 TokenID = nftCount;\r\n        nftCount++;\r\n        _safeMint(TF_owner, TokenID); //emits a {Transfer} event\r\n        emit nft_created(TokenID, TF_owner, false, _nft_price);\r\n\r\n\r\n    }\r\n\r\n    function purchaseCard(uint256 _tokenID) external payable\r\n    {\r\n        //check correct id\r\n        require(_tokenID >= 0 && _tokenID <= nftCount);\r\n        //load nft information\r\n        address owner = ownerOf(_tokenID);\r\n        card memory _cardToSell = nfts[_tokenID];\r\n        require(owner == TF_owner, \"Invalid owner, nft does not belong to the Turkish football association\");\r\n        //check for funds \r\n        require(msg.value >= _cardToSell.price, \"Unsufficient funds\");\r\n        //tranfer the funds (fund value can change after calling external functions, aka the safeTransferFrom)\r\n        TF_owner.transfer(msg.value); // maybe not use this because of the Istambull fork and change in gas prices (not safe anymore)\r\n        //transfer the nft\r\n        safeTransferFrom(owner, msg.sender,_tokenID);\r\n        //update the cards info\r\n        _cardToSell.owner = msg.sender;\r\n        _cardToSell.soldBefore = true;\r\n        nfts[_tokenID] = _cardToSell;\r\n        //event to log this, maybe not do it, cause the safeTransferFrom function already emits a {Transfer} event\r\n        emit nft_sold(_tokenID, _cardToSell.owner, true, _cardToSell.price);\r\n\r\n    }\r\n\r\n    \r\n}\r\n",
  "sourcePath": "C:\\Users\\ricar\\OneDrive\\22_23 1 Semestre\\Blockchain\\Blockchain Project\\Projeto CS48001\\CS48001-NFT-marketplace\\contracts\\NftMarketplace.sol",
  "compiler": {
    "name": "solc",
    "version": "0.8.17+commit.8df45f5f.Emscripten.clang"
  },
  "schemaVersion": "3.4.11",
  "updatedAt": "2023-01-13T08:20:23.181Z",
  "devdoc": {
    "details": "Must receive payments for nft's (sell nfts), verify their creators id, create nfts",
    "kind": "dev",
    "methods": {
      "approve(address,uint256)": {
        "details": "See {IERC721-approve}."
      },
      "balanceOf(address)": {
        "details": "See {IERC721-balanceOf}."
      },
      "getApproved(uint256)": {
        "details": "See {IERC721-getApproved}."
      },
      "isApprovedForAll(address,address)": {
        "details": "See {IERC721-isApprovedForAll}."
      },
      "name()": {
        "details": "See {IERC721Metadata-name}."
      },
      "owner()": {
        "details": "Returns the address of the current owner."
      },
      "ownerOf(uint256)": {
        "details": "See {IERC721-ownerOf}."
      },
      "renounceOwnership()": {
        "details": "Leaves the contract without owner. It will not be possible to call `onlyOwner` functions anymore. Can only be called by the current owner. NOTE: Renouncing ownership will leave the contract without an owner, thereby removing any functionality that is only available to the owner."
      },
      "safeTransferFrom(address,address,uint256)": {
        "details": "See {IERC721-safeTransferFrom}."
      },
      "safeTransferFrom(address,address,uint256,bytes)": {
        "details": "See {IERC721-safeTransferFrom}."
      },
      "setApprovalForAll(address,bool)": {
        "details": "See {IERC721-setApprovalForAll}."
      },
      "supportsInterface(bytes4)": {
        "details": "See {IERC165-supportsInterface}."
      },
      "symbol()": {
        "details": "See {IERC721Metadata-symbol}."
      },
      "tokenURI(uint256)": {
        "details": "See {IERC721Metadata-tokenURI}."
      },
      "transferFrom(address,address,uint256)": {
        "details": "See {IERC721-transferFrom}."
      },
      "transferOwnership(address)": {
        "details": "Transfers ownership of the contract to a new account (`newOwner`). Can only be called by the current owner."
      }
    },
    "version": 1
  },
  "userdoc": {
    "kind": "user",
    "methods": {},
    "notice": "Smart Contract for the nft marketplace of the turkish football assocition",
    "version": 1
  }
}