{
  "contractName": "TurkishFootballCards",
  "abi": [
    {
      "inputs": [],
      "stateMutability": "nonpayable",
      "type": "constructor"
    },
    {
      "anonymous": false,
      "inputs": [
        {
          "indexed": true,
          "internalType": "address",
          "name": "owner",
          "type": "address"
        },
        {
          "indexed": true,
          "internalType": "address",
          "name": "approved",
          "type": "address"
        },
        {
          "indexed": true,
          "internalType": "uint256",
          "name": "tokenId",
          "type": "uint256"
        }
      ],
      "name": "Approval",
      "type": "event"
    },
    {
      "anonymous": false,
      "inputs": [
        {
          "indexed": true,
          "internalType": "address",
          "name": "owner",
          "type": "address"
        },
        {
          "indexed": true,
          "internalType": "address",
          "name": "operator",
          "type": "address"
        },
        {
          "indexed": false,
          "internalType": "bool",
          "name": "approved",
          "type": "bool"
        }
      ],
      "name": "ApprovalForAll",
      "type": "event"
    },
    {
      "anonymous": false,
      "inputs": [
        {
          "indexed": true,
          "internalType": "address",
          "name": "previousOwner",
          "type": "address"
        },
        {
          "indexed": true,
          "internalType": "address",
          "name": "newOwner",
          "type": "address"
        }
      ],
      "name": "OwnershipTransferred",
      "type": "event"
    },
    {
      "anonymous": false,
      "inputs": [
        {
          "indexed": true,
          "internalType": "address",
          "name": "from",
          "type": "address"
        },
        {
          "indexed": true,
          "internalType": "address",
          "name": "to",
          "type": "address"
        },
        {
          "indexed": true,
          "internalType": "uint256",
          "name": "tokenId",
          "type": "uint256"
        }
      ],
      "name": "Transfer",
      "type": "event"
    },
    {
      "anonymous": false,
      "inputs": [
        {
          "indexed": false,
          "internalType": "uint256",
          "name": "id",
          "type": "uint256"
        },
        {
          "indexed": false,
          "internalType": "address",
          "name": "owner",
          "type": "address"
        },
        {
          "indexed": false,
          "internalType": "bool",
          "name": "soldBefore",
          "type": "bool"
        },
        {
          "indexed": false,
          "internalType": "uint256",
          "name": "price",
          "type": "uint256"
        }
      ],
      "name": "nft_sold",
      "type": "event"
    },
    {
      "inputs": [],
      "name": "TF_owner",
      "outputs": [
        {
          "internalType": "address payable",
          "name": "",
          "type": "address"
        }
      ],
      "stateMutability": "view",
      "type": "function",
      "constant": true
    },
    {
      "inputs": [
        {
          "internalType": "address",
          "name": "to",
          "type": "address"
        },
        {
          "internalType": "uint256",
          "name": "tokenId",
          "type": "uint256"
        }
      ],
      "name": "approve",
      "outputs": [],
      "stateMutability": "nonpayable",
      "type": "function"
    },
    {
      "inputs": [
        {
          "internalType": "address",
          "name": "owner",
          "type": "address"
        }
      ],
      "name": "balanceOf",
      "outputs": [
        {
          "internalType": "uint256",
          "name": "",
          "type": "uint256"
        }
      ],
      "stateMutability": "view",
      "type": "function",
      "constant": true
    },
    {
      "inputs": [
        {
          "internalType": "uint256",
          "name": "tokenId",
          "type": "uint256"
        }
      ],
      "name": "getApproved",
      "outputs": [
        {
          "internalType": "address",
          "name": "",
          "type": "address"
        }
      ],
      "stateMutability": "view",
      "type": "function",
      "constant": true
    },
    {
      "inputs": [
        {
          "internalType": "address",
          "name": "owner",
          "type": "address"
        },
        {
          "internalType": "address",
          "name": "operator",
          "type": "address"
        }
      ],
      "name": "isApprovedForAll",
      "outputs": [
        {
          "internalType": "bool",
          "name": "",
          "type": "bool"
        }
      ],
      "stateMutability": "view",
      "type": "function",
      "constant": true
    },
    {
      "inputs": [],
      "name": "mintPrice",
      "outputs": [
        {
          "internalType": "uint256",
          "name": "",
          "type": "uint256"
        }
      ],
      "stateMutability": "view",
      "type": "function",
      "constant": true
    },
    {
      "inputs": [],
      "name": "name",
      "outputs": [
        {
          "internalType": "string",
          "name": "",
          "type": "string"
        }
      ],
      "stateMutability": "view",
      "type": "function",
      "constant": true
    },
    {
      "inputs": [],
      "name": "nftCount",
      "outputs": [
        {
          "internalType": "uint256",
          "name": "",
          "type": "uint256"
        }
      ],
      "stateMutability": "view",
      "type": "function",
      "constant": true
    },
    {
      "inputs": [
        {
          "internalType": "uint256",
          "name": "",
          "type": "uint256"
        }
      ],
      "name": "nfts",
      "outputs": [
        {
          "internalType": "uint256",
          "name": "id",
          "type": "uint256"
        },
        {
          "internalType": "address",
          "name": "owner",
          "type": "address"
        },
        {
          "internalType": "bool",
          "name": "soldBefore",
          "type": "bool"
        },
        {
          "internalType": "uint256",
          "name": "price",
          "type": "uint256"
        }
      ],
      "stateMutability": "view",
      "type": "function",
      "constant": true
    },
    {
      "inputs": [],
      "name": "owner",
      "outputs": [
        {
          "internalType": "address",
          "name": "",
          "type": "address"
        }
      ],
      "stateMutability": "view",
      "type": "function",
      "constant": true
    },
    {
      "inputs": [
        {
          "internalType": "uint256",
          "name": "tokenId",
          "type": "uint256"
        }
      ],
      "name": "ownerOf",
      "outputs": [
        {
          "internalType": "address",
          "name": "",
          "type": "address"
        }
      ],
      "stateMutability": "view",
      "type": "function",
      "constant": true
    },
    {
      "inputs": [],
      "name": "renounceOwnership",
      "outputs": [],
      "stateMutability": "nonpayable",
      "type": "function"
    },
    {
      "inputs": [
        {
          "internalType": "address",
          "name": "from",
          "type": "address"
        },
        {
          "internalType": "address",
          "name": "to",
          "type": "address"
        },
        {
          "internalType": "uint256",
          "name": "tokenId",
          "type": "uint256"
        }
      ],
      "name": "safeTransferFrom",
      "outputs": [],
      "stateMutability": "nonpayable",
      "type": "function"
    },
    {
      "inputs": [
        {
          "internalType": "address",
          "name": "from",
          "type": "address"
        },
        {
          "internalType": "address",
          "name": "to",
          "type": "address"
        },
        {
          "internalType": "uint256",
          "name": "tokenId",
          "type": "uint256"
        },
        {
          "internalType": "bytes",
          "name": "data",
          "type": "bytes"
        }
      ],
      "name": "safeTransferFrom",
      "outputs": [],
      "stateMutability": "nonpayable",
      "type": "function"
    },
    {
      "inputs": [
        {
          "internalType": "address",
          "name": "operator",
          "type": "address"
        },
        {
          "internalType": "bool",
          "name": "approved",
          "type": "bool"
        }
      ],
      "name": "setApprovalForAll",
      "outputs": [],
      "stateMutability": "nonpayable",
      "type": "function"
    },
    {
      "inputs": [
        {
          "internalType": "bytes4",
          "name": "interfaceId",
          "type": "bytes4"
        }
      ],
      "name": "supportsInterface",
      "outputs": [
        {
          "internalType": "bool",
          "name": "",
          "type": "bool"
        }
      ],
      "stateMutability": "view",
      "type": "function",
      "constant": true
    },
    {
      "inputs": [],
      "name": "symbol",
      "outputs": [
        {
          "internalType": "string",
          "name": "",
          "type": "string"
        }
      ],
      "stateMutability": "view",
      "type": "function",
      "constant": true
    },
    {
      "inputs": [
        {
          "internalType": "uint256",
          "name": "tokenId",
          "type": "uint256"
        }
      ],
      "name": "tokenURI",
      "outputs": [
        {
          "internalType": "string",
          "name": "",
          "type": "string"
        }
      ],
      "stateMutability": "view",
      "type": "function",
      "constant": true
    },
    {
      "inputs": [
        {
          "internalType": "address",
          "name": "from",
          "type": "address"
        },
        {
          "internalType": "address",
          "name": "to",
          "type": "address"
        },
        {
          "internalType": "uint256",
          "name": "tokenId",
          "type": "uint256"
        }
      ],
      "name": "transferFrom",
      "outputs": [],
      "stateMutability": "nonpayable",
      "type": "function"
    },
    {
      "inputs": [
        {
          "internalType": "address",
          "name": "newOwner",
          "type": "address"
        }
      ],
      "name": "transferOwnership",
      "outputs": [],
      "stateMutability": "nonpayable",
      "type": "function"
    },
    {
      "inputs": [
        {
          "internalType": "uint256",
          "name": "_nft_price",
          "type": "uint256"
        }
      ],
      "name": "mint",
      "outputs": [],
      "stateMutability": "payable",
      "type": "function",
      "payable": true
    },
    {
      "inputs": [
        {
          "internalType": "uint256",
          "name": "_tokenID",
          "type": "uint256"
        }
      ],
      "name": "purchaseCard",
      "outputs": [],
      "stateMutability": "payable",
      "type": "function",
      "payable": true
    }
  ],
  "bytecode": "0x608060405266071afd498d00006009556000600a553480156200002157600080fd5b506040518060400160405280600f81526020017f5475726b697368466f6f7462616c6c00000000000000000000000000000000008152506040518060400160405280600a81526020017f53696d706c654d696e740000000000000000000000000000000000000000000081525081600090816200009f91906200047f565b508060019081620000b191906200047f565b5050506001600681905550620000dc620000d06200013760201b60201c565b6200013f60201b60201c565b7361cf35200b6998660f4b442ecb85151f9ca98492600860006101000a81548173ffffffffffffffffffffffffffffffffffffffff021916908373ffffffffffffffffffffffffffffffffffffffff16021790555062000566565b600033905090565b6000600760009054906101000a900473ffffffffffffffffffffffffffffffffffffffff16905081600760006101000a81548173ffffffffffffffffffffffffffffffffffffffff021916908373ffffffffffffffffffffffffffffffffffffffff1602179055508173ffffffffffffffffffffffffffffffffffffffff168173ffffffffffffffffffffffffffffffffffffffff167f8be0079c531659141344cd1fd0a4f28419497f9722a3daafe3b4186f6b6457e060405160405180910390a35050565b600081519050919050565b7f4e487b7100000000000000000000000000000000000000000000000000000000600052604160045260246000fd5b7f4e487b7100000000000000000000000000000000000000000000000000000000600052602260045260246000fd5b600060028204905060018216806200028757607f821691505b6020821081036200029d576200029c6200023f565b5b50919050565b60008190508160005260206000209050919050565b60006020601f8301049050919050565b600082821b905092915050565b600060088302620003077fffffffffffffffffffffffffffffffffffffffffffffffffffffffffffffffff82620002c8565b620003138683620002c8565b95508019841693508086168417925050509392505050565b6000819050919050565b6000819050919050565b6000620003606200035a62000354846200032b565b62000335565b6200032b565b9050919050565b6000819050919050565b6200037c836200033f565b620003946200038b8262000367565b848454620002d5565b825550505050565b600090565b620003ab6200039c565b620003b881848462000371565b505050565b5b81811015620003e057620003d4600082620003a1565b600181019050620003be565b5050565b601f8211156200042f57620003f981620002a3565b6200040484620002b8565b8101602085101562000414578190505b6200042c6200042385620002b8565b830182620003bd565b50505b505050565b600082821c905092915050565b6000620004546000198460080262000434565b1980831691505092915050565b60006200046f838362000441565b9150826002028217905092915050565b6200048a8262000205565b67ffffffffffffffff811115620004a657620004a562000210565b5b620004b282546200026e565b620004bf828285620003e4565b600060209050601f831160018114620004f75760008415620004e2578287015190505b620004ee858262000461565b8655506200055e565b601f1984166200050786620002a3565b60005b8281101562000531578489015182556001820191506020850194506020810190506200050a565b868310156200055157848901516200054d601f89168262000441565b8355505b6001600288020188555050505b505050505050565b61332980620005766000396000f3fe6080604052600436106101355760003560e01c8063715018a6116100ab578063a54447aa1161006f578063a54447aa1461041c578063b88d4fde14610438578063c45c20a114610461578063c87b56dd1461048c578063e985e9c5146104c9578063f2fde38b1461050657610135565b8063715018a61461036a5780638da5cb5b1461038157806395d89b41146103ac578063a0712d68146103d7578063a22cb465146103f357610135565b806323b872dd116100fd57806323b872dd14610233578063265aa6211461025c57806342842e0e1461029c5780636352211e146102c55780636817c76c1461030257806370a082311461032d57610135565b806301ffc9a71461013a57806306fdde0314610177578063081812fc146101a2578063095ea7b3146101df5780630af2c6ca14610208575b600080fd5b34801561014657600080fd5b50610161600480360381019061015c91906122a3565b61052f565b60405161016e91906122eb565b60405180910390f35b34801561018357600080fd5b5061018c610611565b6040516101999190612396565b60405180910390f35b3480156101ae57600080fd5b506101c960048036038101906101c491906123ee565b6106a3565b6040516101d6919061245c565b60405180910390f35b3480156101eb57600080fd5b50610206600480360381019061020191906124a3565b6106e9565b005b34801561021457600080fd5b5061021d610800565b60405161022a91906124f2565b60405180910390f35b34801561023f57600080fd5b5061025a6004803603810190610255919061250d565b610806565b005b34801561026857600080fd5b50610283600480360381019061027e91906123ee565b610866565b6040516102939493929190612560565b60405180910390f35b3480156102a857600080fd5b506102c360048036038101906102be919061250d565b6108c3565b005b3480156102d157600080fd5b506102ec60048036038101906102e791906123ee565b6108e3565b6040516102f9919061245c565b60405180910390f35b34801561030e57600080fd5b50610317610969565b60405161032491906124f2565b60405180910390f35b34801561033957600080fd5b50610354600480360381019061034f91906125a5565b61096f565b60405161036191906124f2565b60405180910390f35b34801561037657600080fd5b5061037f610a26565b005b34801561038d57600080fd5b50610396610a3a565b6040516103a3919061245c565b60405180910390f35b3480156103b857600080fd5b506103c1610a64565b6040516103ce9190612396565b60405180910390f35b6103f160048036038101906103ec91906123ee565b610af6565b005b3480156103ff57600080fd5b5061041a600480360381019061041591906125fe565b610ca7565b005b610436600480360381019061043191906123ee565b610cbd565b005b34801561044457600080fd5b5061045f600480360381019061045a9190612773565b610ffe565b005b34801561046d57600080fd5b50610476611060565b6040516104839190612817565b60405180910390f35b34801561049857600080fd5b506104b360048036038101906104ae91906123ee565b611086565b6040516104c09190612396565b60405180910390f35b3480156104d557600080fd5b506104f060048036038101906104eb9190612832565b6110ee565b6040516104fd91906122eb565b60405180910390f35b34801561051257600080fd5b5061052d600480360381019061052891906125a5565b611182565b005b60007f80ac58cd000000000000000000000000000000000000000000000000000000007bffffffffffffffffffffffffffffffffffffffffffffffffffffffff1916827bffffffffffffffffffffffffffffffffffffffffffffffffffffffff191614806105fa57507f5b5e139f000000000000000000000000000000000000000000000000000000007bffffffffffffffffffffffffffffffffffffffffffffffffffffffff1916827bffffffffffffffffffffffffffffffffffffffffffffffffffffffff1916145b8061060a575061060982611205565b5b9050919050565b606060008054610620906128a1565b80601f016020809104026020016040519081016040528092919081815260200182805461064c906128a1565b80156106995780601f1061066e57610100808354040283529160200191610699565b820191906000526020600020905b81548152906001019060200180831161067c57829003601f168201915b5050505050905090565b60006106ae8261126f565b6004600083815260200190815260200160002060009054906101000a900473ffffffffffffffffffffffffffffffffffffffff169050919050565b60006106f4826108e3565b90508073ffffffffffffffffffffffffffffffffffffffff168373ffffffffffffffffffffffffffffffffffffffff1603610764576040517f08c379a000000000000000000000000000000000000000000000000000000000815260040161075b90612944565b60405180910390fd5b8073ffffffffffffffffffffffffffffffffffffffff166107836112ba565b73ffffffffffffffffffffffffffffffffffffffff1614806107b257506107b1816107ac6112ba565b6110ee565b5b6107f1576040517f08c379a00000000000000000000000000000000000000000000000000000000081526004016107e8906129d6565b60405180910390fd5b6107fb83836112c2565b505050565b600a5481565b6108176108116112ba565b8261137b565b610856576040517f08c379a000000000000000000000000000000000000000000000000000000000815260040161084d90612a68565b60405180910390fd5b610861838383611410565b505050565b600b6020528060005260406000206000915090508060000154908060010160009054906101000a900473ffffffffffffffffffffffffffffffffffffffff16908060010160149054906101000a900460ff16908060020154905084565b6108de83838360405180602001604052806000815250610ffe565b505050565b6000806108ef83611709565b9050600073ffffffffffffffffffffffffffffffffffffffff168173ffffffffffffffffffffffffffffffffffffffff1603610960576040517f08c379a000000000000000000000000000000000000000000000000000000000815260040161095790612ad4565b60405180910390fd5b80915050919050565b60095481565b60008073ffffffffffffffffffffffffffffffffffffffff168273ffffffffffffffffffffffffffffffffffffffff16036109df576040517f08c379a00000000000000000000000000000000000000000000000000000000081526004016109d690612b66565b60405180910390fd5b600360008373ffffffffffffffffffffffffffffffffffffffff1673ffffffffffffffffffffffffffffffffffffffff168152602001908152602001600020549050919050565b610a2e611746565b610a3860006117c4565b565b6000600760009054906101000a900473ffffffffffffffffffffffffffffffffffffffff16905090565b606060018054610a73906128a1565b80601f0160208091040260200160405190810160405280929190818152602001828054610a9f906128a1565b8015610aec5780601f10610ac157610100808354040283529160200191610aec565b820191906000526020600020905b815481529060010190602001808311610acf57829003601f168201915b5050505050905090565b610afe611746565b600860009054906101000a900473ffffffffffffffffffffffffffffffffffffffff1673ffffffffffffffffffffffffffffffffffffffff163373ffffffffffffffffffffffffffffffffffffffff1614610b5857600080fd5b600954341015610b6757600080fd5b6040518060800160405280600a548152602001600860009054906101000a900473ffffffffffffffffffffffffffffffffffffffff1673ffffffffffffffffffffffffffffffffffffffff16815260200160001515815260200182815250600b6000600a5481526020019081526020016000206000820151816000015560208201518160010160006101000a81548173ffffffffffffffffffffffffffffffffffffffff021916908373ffffffffffffffffffffffffffffffffffffffff16021790555060408201518160010160146101000a81548160ff021916908315150217905550606082015181600201559050506000600a549050600a6000815480929190610c7290612bb5565b9190505550610ca3600860009054906101000a900473ffffffffffffffffffffffffffffffffffffffff168261188a565b5050565b610cb9610cb26112ba565b83836118a8565b5050565b60008110158015610cd05750600a548111155b610cd957600080fd5b6000610ce4826108e3565b90506000600b6000848152602001908152602001600020604051806080016040529081600082015481526020016001820160009054906101000a900473ffffffffffffffffffffffffffffffffffffffff1673ffffffffffffffffffffffffffffffffffffffff1673ffffffffffffffffffffffffffffffffffffffff1681526020016001820160149054906101000a900460ff161515151581526020016002820154815250509050600860009054906101000a900473ffffffffffffffffffffffffffffffffffffffff1673ffffffffffffffffffffffffffffffffffffffff168273ffffffffffffffffffffffffffffffffffffffff1614610e1d576040517f08c379a0000000000000000000000000000000000000000000000000000000008152600401610e1490612c95565b60405180910390fd5b8060600151341015610e64576040517f08c379a0000000000000000000000000000000000000000000000000000000008152600401610e5b90612d01565b60405180910390fd5b600860009054906101000a900473ffffffffffffffffffffffffffffffffffffffff1673ffffffffffffffffffffffffffffffffffffffff166108fc349081150290604051600060405180830381858888f19350505050158015610ecc573d6000803e3d6000fd5b50610ed88233856108c3565b33816020019073ffffffffffffffffffffffffffffffffffffffff16908173ffffffffffffffffffffffffffffffffffffffff1681525050600181604001901515908115158152505080600b60008581526020019081526020016000206000820151816000015560208201518160010160006101000a81548173ffffffffffffffffffffffffffffffffffffffff021916908373ffffffffffffffffffffffffffffffffffffffff16021790555060408201518160010160146101000a81548160ff021916908315150217905550606082015181600201559050507fe6f937eba12ea654073a42ae5c30ac6dfbd7fad6d1a1b7d1b36e4df368e979e183826020015160018460600151604051610ff19493929190612560565b60405180910390a1505050565b61100f6110096112ba565b8361137b565b61104e576040517f08c379a000000000000000000000000000000000000000000000000000000000815260040161104590612a68565b60405180910390fd5b61105a84848484611a14565b50505050565b600860009054906101000a900473ffffffffffffffffffffffffffffffffffffffff1681565b60606110918261126f565b600061109b611a70565b905060008151116110bb57604051806020016040528060008152506110e6565b806110c584611a87565b6040516020016110d6929190612d5d565b6040516020818303038152906040525b915050919050565b6000600560008473ffffffffffffffffffffffffffffffffffffffff1673ffffffffffffffffffffffffffffffffffffffff16815260200190815260200160002060008373ffffffffffffffffffffffffffffffffffffffff1673ffffffffffffffffffffffffffffffffffffffff16815260200190815260200160002060009054906101000a900460ff16905092915050565b61118a611746565b600073ffffffffffffffffffffffffffffffffffffffff168173ffffffffffffffffffffffffffffffffffffffff16036111f9576040517f08c379a00000000000000000000000000000000000000000000000000000000081526004016111f090612df3565b60405180910390fd5b611202816117c4565b50565b60007f01ffc9a7000000000000000000000000000000000000000000000000000000007bffffffffffffffffffffffffffffffffffffffffffffffffffffffff1916827bffffffffffffffffffffffffffffffffffffffffffffffffffffffff1916149050919050565b61127881611b55565b6112b7576040517f08c379a00000000000000000000000000000000000000000000000000000000081526004016112ae90612ad4565b60405180910390fd5b50565b600033905090565b816004600083815260200190815260200160002060006101000a81548173ffffffffffffffffffffffffffffffffffffffff021916908373ffffffffffffffffffffffffffffffffffffffff160217905550808273ffffffffffffffffffffffffffffffffffffffff16611335836108e3565b73ffffffffffffffffffffffffffffffffffffffff167f8c5be1e5ebec7d5bd14f71427d1e84f3dd0314c0f7b2291e5b200ac8c7c3b92560405160405180910390a45050565b600080611387836108e3565b90508073ffffffffffffffffffffffffffffffffffffffff168473ffffffffffffffffffffffffffffffffffffffff1614806113c957506113c881856110ee565b5b8061140757508373ffffffffffffffffffffffffffffffffffffffff166113ef846106a3565b73ffffffffffffffffffffffffffffffffffffffff16145b91505092915050565b8273ffffffffffffffffffffffffffffffffffffffff16611430826108e3565b73ffffffffffffffffffffffffffffffffffffffff1614611486576040517f08c379a000000000000000000000000000000000000000000000000000000000815260040161147d90612e85565b60405180910390fd5b600073ffffffffffffffffffffffffffffffffffffffff168273ffffffffffffffffffffffffffffffffffffffff16036114f5576040517f08c379a00000000000000000000000000000000000000000000000000000000081526004016114ec90612f17565b60405180910390fd5b6115028383836001611b96565b8273ffffffffffffffffffffffffffffffffffffffff16611522826108e3565b73ffffffffffffffffffffffffffffffffffffffff1614611578576040517f08c379a000000000000000000000000000000000000000000000000000000000815260040161156f90612e85565b60405180910390fd5b6004600082815260200190815260200160002060006101000a81549073ffffffffffffffffffffffffffffffffffffffff02191690556001600360008573ffffffffffffffffffffffffffffffffffffffff1673ffffffffffffffffffffffffffffffffffffffff168152602001908152602001600020600082825403925050819055506001600360008473ffffffffffffffffffffffffffffffffffffffff1673ffffffffffffffffffffffffffffffffffffffff16815260200190815260200160002060008282540192505081905550816002600083815260200190815260200160002060006101000a81548173ffffffffffffffffffffffffffffffffffffffff021916908373ffffffffffffffffffffffffffffffffffffffff160217905550808273ffffffffffffffffffffffffffffffffffffffff168473ffffffffffffffffffffffffffffffffffffffff167fddf252ad1be2c89b69c2b068fc378daa952ba7f163c4a11628f55a4df523b3ef60405160405180910390a46117048383836001611cbc565b505050565b60006002600083815260200190815260200160002060009054906101000a900473ffffffffffffffffffffffffffffffffffffffff169050919050565b61174e6112ba565b73ffffffffffffffffffffffffffffffffffffffff1661176c610a3a565b73ffffffffffffffffffffffffffffffffffffffff16146117c2576040517f08c379a00000000000000000000000000000000000000000000000000000000081526004016117b990612f83565b60405180910390fd5b565b6000600760009054906101000a900473ffffffffffffffffffffffffffffffffffffffff16905081600760006101000a81548173ffffffffffffffffffffffffffffffffffffffff021916908373ffffffffffffffffffffffffffffffffffffffff1602179055508173ffffffffffffffffffffffffffffffffffffffff168173ffffffffffffffffffffffffffffffffffffffff167f8be0079c531659141344cd1fd0a4f28419497f9722a3daafe3b4186f6b6457e060405160405180910390a35050565b6118a4828260405180602001604052806000815250611cc2565b5050565b8173ffffffffffffffffffffffffffffffffffffffff168373ffffffffffffffffffffffffffffffffffffffff1603611916576040517f08c379a000000000000000000000000000000000000000000000000000000000815260040161190d90612fef565b60405180910390fd5b80600560008573ffffffffffffffffffffffffffffffffffffffff1673ffffffffffffffffffffffffffffffffffffffff16815260200190815260200160002060008473ffffffffffffffffffffffffffffffffffffffff1673ffffffffffffffffffffffffffffffffffffffff16815260200190815260200160002060006101000a81548160ff0219169083151502179055508173ffffffffffffffffffffffffffffffffffffffff168373ffffffffffffffffffffffffffffffffffffffff167f17307eab39ab6107e8899845ad3d59bd9653f200f220920489ca2b5937696c3183604051611a0791906122eb565b60405180910390a3505050565b611a1f848484611410565b611a2b84848484611d1d565b611a6a576040517f08c379a0000000000000000000000000000000000000000000000000000000008152600401611a6190613081565b60405180910390fd5b50505050565b606060405180602001604052806000815250905090565b606060006001611a9684611ea4565b01905060008167ffffffffffffffff811115611ab557611ab4612648565b5b6040519080825280601f01601f191660200182016040528015611ae75781602001600182028036833780820191505090505b509050600082602001820190505b600115611b4a578080600190039150507f3031323334353637383961626364656600000000000000000000000000000000600a86061a8153600a8581611b3e57611b3d6130a1565b5b04945060008503611af5575b819350505050919050565b60008073ffffffffffffffffffffffffffffffffffffffff16611b7783611709565b73ffffffffffffffffffffffffffffffffffffffff1614159050919050565b6001811115611cb657600073ffffffffffffffffffffffffffffffffffffffff168473ffffffffffffffffffffffffffffffffffffffff1614611c2a5780600360008673ffffffffffffffffffffffffffffffffffffffff1673ffffffffffffffffffffffffffffffffffffffff1681526020019081526020016000206000828254611c2291906130d0565b925050819055505b600073ffffffffffffffffffffffffffffffffffffffff168373ffffffffffffffffffffffffffffffffffffffff1614611cb55780600360008573ffffffffffffffffffffffffffffffffffffffff1673ffffffffffffffffffffffffffffffffffffffff1681526020019081526020016000206000828254611cad9190613104565b925050819055505b5b50505050565b50505050565b611ccc8383611ff7565b611cd96000848484611d1d565b611d18576040517f08c379a0000000000000000000000000000000000000000000000000000000008152600401611d0f90613081565b60405180910390fd5b505050565b6000611d3e8473ffffffffffffffffffffffffffffffffffffffff16612214565b15611e97578373ffffffffffffffffffffffffffffffffffffffff1663150b7a02611d676112ba565b8786866040518563ffffffff1660e01b8152600401611d89949392919061318d565b6020604051808303816000875af1925050508015611dc557506040513d601f19601f82011682018060405250810190611dc291906131ee565b60015b611e47573d8060008114611df5576040519150601f19603f3d011682016040523d82523d6000602084013e611dfa565b606091505b506000815103611e3f576040517f08c379a0000000000000000000000000000000000000000000000000000000008152600401611e3690613081565b60405180910390fd5b805181602001fd5b63150b7a0260e01b7bffffffffffffffffffffffffffffffffffffffffffffffffffffffff1916817bffffffffffffffffffffffffffffffffffffffffffffffffffffffff191614915050611e9c565b600190505b949350505050565b600080600090507a184f03e93ff9f4daa797ed6e38ed64bf6a1f0100000000000000008310611f02577a184f03e93ff9f4daa797ed6e38ed64bf6a1f0100000000000000008381611ef857611ef76130a1565b5b0492506040810190505b6d04ee2d6d415b85acef81000000008310611f3f576d04ee2d6d415b85acef81000000008381611f3557611f346130a1565b5b0492506020810190505b662386f26fc100008310611f6e57662386f26fc100008381611f6457611f636130a1565b5b0492506010810190505b6305f5e1008310611f97576305f5e1008381611f8d57611f8c6130a1565b5b0492506008810190505b6127108310611fbc576127108381611fb257611fb16130a1565b5b0492506004810190505b60648310611fdf5760648381611fd557611fd46130a1565b5b0492506002810190505b600a8310611fee576001810190505b80915050919050565b600073ffffffffffffffffffffffffffffffffffffffff168273ffffffffffffffffffffffffffffffffffffffff1603612066576040517f08c379a000000000000000000000000000000000000000000000000000000000815260040161205d90613267565b60405180910390fd5b61206f81611b55565b156120af576040517f08c379a00000000000000000000000000000000000000000000000000000000081526004016120a6906132d3565b60405180910390fd5b6120bd600083836001611b96565b6120c681611b55565b15612106576040517f08c379a00000000000000000000000000000000000000000000000000000000081526004016120fd906132d3565b60405180910390fd5b6001600360008473ffffffffffffffffffffffffffffffffffffffff1673ffffffffffffffffffffffffffffffffffffffff16815260200190815260200160002060008282540192505081905550816002600083815260200190815260200160002060006101000a81548173ffffffffffffffffffffffffffffffffffffffff021916908373ffffffffffffffffffffffffffffffffffffffff160217905550808273ffffffffffffffffffffffffffffffffffffffff16600073ffffffffffffffffffffffffffffffffffffffff167fddf252ad1be2c89b69c2b068fc378daa952ba7f163c4a11628f55a4df523b3ef60405160405180910390a4612210600083836001611cbc565b5050565b6000808273ffffffffffffffffffffffffffffffffffffffff163b119050919050565b6000604051905090565b600080fd5b600080fd5b60007fffffffff0000000000000000000000000000000000000000000000000000000082169050919050565b6122808161224b565b811461228b57600080fd5b50565b60008135905061229d81612277565b92915050565b6000602082840312156122b9576122b8612241565b5b60006122c78482850161228e565b91505092915050565b60008115159050919050565b6122e5816122d0565b82525050565b600060208201905061230060008301846122dc565b92915050565b600081519050919050565b600082825260208201905092915050565b60005b83811015612340578082015181840152602081019050612325565b60008484015250505050565b6000601f19601f8301169050919050565b600061236882612306565b6123728185612311565b9350612382818560208601612322565b61238b8161234c565b840191505092915050565b600060208201905081810360008301526123b0818461235d565b905092915050565b6000819050919050565b6123cb816123b8565b81146123d657600080fd5b50565b6000813590506123e8816123c2565b92915050565b60006020828403121561240457612403612241565b5b6000612412848285016123d9565b91505092915050565b600073ffffffffffffffffffffffffffffffffffffffff82169050919050565b60006124468261241b565b9050919050565b6124568161243b565b82525050565b6000602082019050612471600083018461244d565b92915050565b6124808161243b565b811461248b57600080fd5b50565b60008135905061249d81612477565b92915050565b600080604083850312156124ba576124b9612241565b5b60006124c88582860161248e565b92505060206124d9858286016123d9565b9150509250929050565b6124ec816123b8565b82525050565b600060208201905061250760008301846124e3565b92915050565b60008060006060848603121561252657612525612241565b5b60006125348682870161248e565b93505060206125458682870161248e565b9250506040612556868287016123d9565b9150509250925092565b600060808201905061257560008301876124e3565b612582602083018661244d565b61258f60408301856122dc565b61259c60608301846124e3565b95945050505050565b6000602082840312156125bb576125ba612241565b5b60006125c98482850161248e565b91505092915050565b6125db816122d0565b81146125e657600080fd5b50565b6000813590506125f8816125d2565b92915050565b6000806040838503121561261557612614612241565b5b60006126238582860161248e565b9250506020612634858286016125e9565b9150509250929050565b600080fd5b600080fd5b7f4e487b7100000000000000000000000000000000000000000000000000000000600052604160045260246000fd5b6126808261234c565b810181811067ffffffffffffffff8211171561269f5761269e612648565b5b80604052505050565b60006126b2612237565b90506126be8282612677565b919050565b600067ffffffffffffffff8211156126de576126dd612648565b5b6126e78261234c565b9050602081019050919050565b82818337600083830152505050565b6000612716612711846126c3565b6126a8565b90508281526020810184848401111561273257612731612643565b5b61273d8482856126f4565b509392505050565b600082601f83011261275a5761275961263e565b5b813561276a848260208601612703565b91505092915050565b6000806000806080858703121561278d5761278c612241565b5b600061279b8782880161248e565b94505060206127ac8782880161248e565b93505060406127bd878288016123d9565b925050606085013567ffffffffffffffff8111156127de576127dd612246565b5b6127ea87828801612745565b91505092959194509250565b60006128018261241b565b9050919050565b612811816127f6565b82525050565b600060208201905061282c6000830184612808565b92915050565b6000806040838503121561284957612848612241565b5b60006128578582860161248e565b92505060206128688582860161248e565b9150509250929050565b7f4e487b7100000000000000000000000000000000000000000000000000000000600052602260045260246000fd5b600060028204905060018216806128b957607f821691505b6020821081036128cc576128cb612872565b5b50919050565b7f4552433732313a20617070726f76616c20746f2063757272656e74206f776e6560008201527f7200000000000000000000000000000000000000000000000000000000000000602082015250565b600061292e602183612311565b9150612939826128d2565b604082019050919050565b6000602082019050818103600083015261295d81612921565b9050919050565b7f4552433732313a20617070726f76652063616c6c6572206973206e6f7420746f60008201527f6b656e206f776e6572206f7220617070726f76656420666f7220616c6c000000602082015250565b60006129c0603d83612311565b91506129cb82612964565b604082019050919050565b600060208201905081810360008301526129ef816129b3565b9050919050565b7f4552433732313a2063616c6c6572206973206e6f7420746f6b656e206f776e6560008201527f72206f7220617070726f76656400000000000000000000000000000000000000602082015250565b6000612a52602d83612311565b9150612a5d826129f6565b604082019050919050565b60006020820190508181036000830152612a8181612a45565b9050919050565b7f4552433732313a20696e76616c696420746f6b656e2049440000000000000000600082015250565b6000612abe601883612311565b9150612ac982612a88565b602082019050919050565b60006020820190508181036000830152612aed81612ab1565b9050919050565b7f4552433732313a2061646472657373207a65726f206973206e6f74206120766160008201527f6c6964206f776e65720000000000000000000000000000000000000000000000602082015250565b6000612b50602983612311565b9150612b5b82612af4565b604082019050919050565b60006020820190508181036000830152612b7f81612b43565b9050919050565b7f4e487b7100000000000000000000000000000000000000000000000000000000600052601160045260246000fd5b6000612bc0826123b8565b91507fffffffffffffffffffffffffffffffffffffffffffffffffffffffffffffffff8203612bf257612bf1612b86565b5b600182019050919050565b7f496e76616c6964206f776e65722c206e667420646f6573206e6f742062656c6f60008201527f6e6720746f20746865205475726b69736820666f6f7462616c6c206173736f6360208201527f696174696f6e0000000000000000000000000000000000000000000000000000604082015250565b6000612c7f604683612311565b9150612c8a82612bfd565b606082019050919050565b60006020820190508181036000830152612cae81612c72565b9050919050565b7f556e73756666696369656e742066756e64730000000000000000000000000000600082015250565b6000612ceb601283612311565b9150612cf682612cb5565b602082019050919050565b60006020820190508181036000830152612d1a81612cde565b9050919050565b600081905092915050565b6000612d3782612306565b612d418185612d21565b9350612d51818560208601612322565b80840191505092915050565b6000612d698285612d2c565b9150612d758284612d2c565b91508190509392505050565b7f4f776e61626c653a206e6577206f776e657220697320746865207a65726f206160008201527f6464726573730000000000000000000000000000000000000000000000000000602082015250565b6000612ddd602683612311565b9150612de882612d81565b604082019050919050565b60006020820190508181036000830152612e0c81612dd0565b9050919050565b7f4552433732313a207472616e736665722066726f6d20696e636f72726563742060008201527f6f776e6572000000000000000000000000000000000000000000000000000000602082015250565b6000612e6f602583612311565b9150612e7a82612e13565b604082019050919050565b60006020820190508181036000830152612e9e81612e62565b9050919050565b7f4552433732313a207472616e7366657220746f20746865207a65726f2061646460008201527f7265737300000000000000000000000000000000000000000000000000000000602082015250565b6000612f01602483612311565b9150612f0c82612ea5565b604082019050919050565b60006020820190508181036000830152612f3081612ef4565b9050919050565b7f4f776e61626c653a2063616c6c6572206973206e6f7420746865206f776e6572600082015250565b6000612f6d602083612311565b9150612f7882612f37565b602082019050919050565b60006020820190508181036000830152612f9c81612f60565b9050919050565b7f4552433732313a20617070726f766520746f2063616c6c657200000000000000600082015250565b6000612fd9601983612311565b9150612fe482612fa3565b602082019050919050565b6000602082019050818103600083015261300881612fcc565b9050919050565b7f4552433732313a207472616e7366657220746f206e6f6e20455243373231526560008201527f63656976657220696d706c656d656e7465720000000000000000000000000000602082015250565b600061306b603283612311565b91506130768261300f565b604082019050919050565b6000602082019050818103600083015261309a8161305e565b9050919050565b7f4e487b7100000000000000000000000000000000000000000000000000000000600052601260045260246000fd5b60006130db826123b8565b91506130e6836123b8565b92508282039050818111156130fe576130fd612b86565b5b92915050565b600061310f826123b8565b915061311a836123b8565b925082820190508082111561313257613131612b86565b5b92915050565b600081519050919050565b600082825260208201905092915050565b600061315f82613138565b6131698185613143565b9350613179818560208601612322565b6131828161234c565b840191505092915050565b60006080820190506131a2600083018761244d565b6131af602083018661244d565b6131bc60408301856124e3565b81810360608301526131ce8184613154565b905095945050505050565b6000815190506131e881612277565b92915050565b60006020828403121561320457613203612241565b5b6000613212848285016131d9565b91505092915050565b7f4552433732313a206d696e7420746f20746865207a65726f2061646472657373600082015250565b6000613251602083612311565b915061325c8261321b565b602082019050919050565b6000602082019050818103600083015261328081613244565b9050919050565b7f4552433732313a20746f6b656e20616c7265616479206d696e74656400000000600082015250565b60006132bd601c83612311565b91506132c882613287565b602082019050919050565b600060208201905081810360008301526132ec816132b0565b905091905056fea264697066735822122017691f5d079a428a0fdc47cb3b56683fae653ab790e951ed873af33efb54ffa664736f6c63430008110033",
  "immutableReferences": {},
  "source": "// SPDX-License-Identifier: MIT\r\npragma solidity >=0.4.22 <0.9.0;\r\n\r\nimport \"@openzeppelin/contracts/token/ERC721/ERC721.sol\";\r\nimport \"@openzeppelin/contracts//security/ReentrancyGuard.sol\";\r\nimport \"@openzeppelin/contracts/access/Ownable.sol\";\r\n\r\n\r\n/// @notice Smart Contract for the nft marketplace of the turkish football assocition\r\n/// @dev Must receive payments for nft's (sell nfts), verify their creators id, create nfts\r\n\r\ncontract TurkishFootballCards is ERC721, ReentrancyGuard, Ownable\r\n{\r\n    address payable public TF_owner;\r\n    uint256 public mintPrice = 0.002 ether;\r\n    uint256 public nftCount = 0;\r\n    mapping(uint256 => card) public nfts;\r\n\r\n    \r\n    struct card\r\n    {\r\n        uint256 id;\r\n        address owner;\r\n        bool soldBefore; \r\n        uint256 price;\r\n    }\r\n\r\n    event nft_sold\r\n    (\r\n        uint256 id,\r\n        address owner,\r\n        bool soldBefore,\r\n        uint256 price\r\n    );\r\n\r\n\r\n    constructor() ERC721('TurkishFootball','SimpleMint')\r\n    {\r\n        TF_owner = payable(0x61cf35200B6998660f4b442Ecb85151F9CA98492);\r\n        //nftMinter = 'address of the turkish football federation';     \r\n        //call the constructor of the ERC721\r\n    }\r\n\r\n    \r\n    function mint(uint256 _nft_price) external onlyOwner payable\r\n    {\r\n        //this funtion is responsible for the minting of new coins\r\n        //only the Turkish Football federation is supposed to be able to mint\r\n        require(msg.sender == TF_owner);\r\n        //the message value should be equal to the minting cost\r\n        require(msg.value >= mintPrice);\r\n        //creating the new nft in the marketplace\r\n        \r\n        nfts[nftCount] = card({id: nftCount, owner: TF_owner, soldBefore: false, price: _nft_price});\r\n        //actually creating the nft in the\r\n        uint256 TokenID = nftCount;\r\n        nftCount++;\r\n        _safeMint(TF_owner, TokenID); //emits a {Transfer} event\r\n\r\n\r\n    }\r\n\r\n    //this version of the funtion in gonna diiiieee\r\n    //this is a normal marketplace, now, let us change it to a nft marketplace\r\n    /*\r\n    function purchaseCard(uint256 _id) public external payable\r\n    {\r\n        //check correct id\r\n        require(_id >= 0 && _id <= nftCount);\r\n        //check if valid creator/current owner\r\n        card memory _nft_card = nfts[_id]; \r\n        require(_nft_card.owner == TF_owner);\r\n        //check if it's been sold\r\n        require(!_nft_card.soldBefore);\r\n        //check price/funds\r\n        require(msg.value >= _nft_card.price);\r\n        //change owner\r\n        //_nft_card.owner = msg.sender; we should use the proper thing to tdo this, aka ERC721\r\n        //mark as sold\r\n        _nft_card.soldBefore = true;\r\n        //update nft list\r\n        nfts[_id] = _nft_card;\r\n        //transfer funds\r\n        TF_owner.transfer(msg.value);\r\n        //trigger event\r\n        emit nft_sold(_id, _nft_card.owner,_nft_card.nftID, true, _nft_card.price);\r\n\r\n    }*/\r\n\r\n\r\n\r\n    //new version of the purchaseCard, using the standard ERC721\r\n    function purchaseCard(uint256 _tokenID) external payable\r\n    {\r\n        //check correct id\r\n        require(_tokenID >= 0 && _tokenID <= nftCount);\r\n        //load nft information\r\n        address owner = ownerOf(_tokenID);\r\n        card memory _cardToSell = nfts[_tokenID];\r\n        require(owner == TF_owner, \"Invalid owner, nft does not belong to the Turkish football association\");\r\n        //check for funds \r\n        require(msg.value >= _cardToSell.price, \"Unsufficient funds\");\r\n        //tranfer the funds (fund value can change after calling external functions, aka the safeTransferFrom)\r\n        TF_owner.transfer(msg.value); // maybe not use this because of the Istambull fork and change in gas prices (not safe anymore)\r\n        //transfer the nft\r\n        safeTransferFrom(owner, msg.sender,_tokenID);\r\n        //update the cards info\r\n        _cardToSell.owner = msg.sender;\r\n        _cardToSell.soldBefore = true;\r\n        nfts[_tokenID] = _cardToSell;\r\n        //event to log this, maybe not do it, cause the safeTransferFrom function already emits a {Transfer} event\r\n        emit nft_sold(_tokenID, _cardToSell.owner, true, _cardToSell.price);\r\n\r\n    }\r\n\r\n    \r\n}\r\n",
  "sourcePath": "C:\\Users\\ricar\\OneDrive\\22_23 1 Semestre\\Blockchain\\Blockchain Project\\Projeto CS48001\\CS48001-NFT-marketplace\\contracts\\NftMarketplace.sol",
  "compiler": {
    "name": "solc",
    "version": "0.8.17+commit.8df45f5f.Emscripten.clang"
  },
  "schemaVersion": "3.4.11",
  "updatedAt": "2023-01-12T18:06:37.650Z",
  "networkType": "ethereum",
  "devdoc": {
    "details": "Must receive payments for nft's (sell nfts), verify their creators id, create nfts",
    "kind": "dev",
    "methods": {
      "approve(address,uint256)": {
        "details": "See {IERC721-approve}."
      },
      "balanceOf(address)": {
        "details": "See {IERC721-balanceOf}."
      },
      "getApproved(uint256)": {
        "details": "See {IERC721-getApproved}."
      },
      "isApprovedForAll(address,address)": {
        "details": "See {IERC721-isApprovedForAll}."
      },
      "name()": {
        "details": "See {IERC721Metadata-name}."
      },
      "owner()": {
        "details": "Returns the address of the current owner."
      },
      "ownerOf(uint256)": {
        "details": "See {IERC721-ownerOf}."
      },
      "renounceOwnership()": {
        "details": "Leaves the contract without owner. It will not be possible to call `onlyOwner` functions anymore. Can only be called by the current owner. NOTE: Renouncing ownership will leave the contract without an owner, thereby removing any functionality that is only available to the owner."
      },
      "safeTransferFrom(address,address,uint256)": {
        "details": "See {IERC721-safeTransferFrom}."
      },
      "safeTransferFrom(address,address,uint256,bytes)": {
        "details": "See {IERC721-safeTransferFrom}."
      },
      "setApprovalForAll(address,bool)": {
        "details": "See {IERC721-setApprovalForAll}."
      },
      "supportsInterface(bytes4)": {
        "details": "See {IERC165-supportsInterface}."
      },
      "symbol()": {
        "details": "See {IERC721Metadata-symbol}."
      },
      "tokenURI(uint256)": {
        "details": "See {IERC721Metadata-tokenURI}."
      },
      "transferFrom(address,address,uint256)": {
        "details": "See {IERC721-transferFrom}."
      },
      "transferOwnership(address)": {
        "details": "Transfers ownership of the contract to a new account (`newOwner`). Can only be called by the current owner."
      }
    },
    "version": 1
  },
  "userdoc": {
    "kind": "user",
    "methods": {},
    "notice": "Smart Contract for the nft marketplace of the turkish football assocition",
    "version": 1
  }
}