{
  "contractName": "TurkishFootballCards",
  "abi": [
    {
      "inputs": [],
      "stateMutability": "nonpayable",
      "type": "constructor"
    },
    {
      "anonymous": false,
      "inputs": [
        {
          "indexed": true,
          "internalType": "address",
          "name": "owner",
          "type": "address"
        },
        {
          "indexed": true,
          "internalType": "address",
          "name": "approved",
          "type": "address"
        },
        {
          "indexed": true,
          "internalType": "uint256",
          "name": "tokenId",
          "type": "uint256"
        }
      ],
      "name": "Approval",
      "type": "event"
    },
    {
      "anonymous": false,
      "inputs": [
        {
          "indexed": true,
          "internalType": "address",
          "name": "owner",
          "type": "address"
        },
        {
          "indexed": true,
          "internalType": "address",
          "name": "operator",
          "type": "address"
        },
        {
          "indexed": false,
          "internalType": "bool",
          "name": "approved",
          "type": "bool"
        }
      ],
      "name": "ApprovalForAll",
      "type": "event"
    },
    {
      "anonymous": false,
      "inputs": [
        {
          "indexed": true,
          "internalType": "address",
          "name": "previousOwner",
          "type": "address"
        },
        {
          "indexed": true,
          "internalType": "address",
          "name": "newOwner",
          "type": "address"
        }
      ],
      "name": "OwnershipTransferred",
      "type": "event"
    },
    {
      "anonymous": false,
      "inputs": [
        {
          "indexed": true,
          "internalType": "address",
          "name": "from",
          "type": "address"
        },
        {
          "indexed": true,
          "internalType": "address",
          "name": "to",
          "type": "address"
        },
        {
          "indexed": true,
          "internalType": "uint256",
          "name": "tokenId",
          "type": "uint256"
        }
      ],
      "name": "Transfer",
      "type": "event"
    },
    {
      "anonymous": false,
      "inputs": [
        {
          "indexed": false,
          "internalType": "uint256",
          "name": "id",
          "type": "uint256"
        },
        {
          "indexed": false,
          "internalType": "address",
          "name": "owner",
          "type": "address"
        },
        {
          "indexed": false,
          "internalType": "bool",
          "name": "soldBefore",
          "type": "bool"
        },
        {
          "indexed": false,
          "internalType": "uint256",
          "name": "price",
          "type": "uint256"
        }
      ],
      "name": "nft_sold",
      "type": "event"
    },
    {
      "inputs": [],
      "name": "TF_owner",
      "outputs": [
        {
          "internalType": "address payable",
          "name": "",
          "type": "address"
        }
      ],
      "stateMutability": "view",
      "type": "function",
      "constant": true
    },
    {
      "inputs": [
        {
          "internalType": "address",
          "name": "to",
          "type": "address"
        },
        {
          "internalType": "uint256",
          "name": "tokenId",
          "type": "uint256"
        }
      ],
      "name": "approve",
      "outputs": [],
      "stateMutability": "nonpayable",
      "type": "function"
    },
    {
      "inputs": [
        {
          "internalType": "address",
          "name": "owner",
          "type": "address"
        }
      ],
      "name": "balanceOf",
      "outputs": [
        {
          "internalType": "uint256",
          "name": "",
          "type": "uint256"
        }
      ],
      "stateMutability": "view",
      "type": "function",
      "constant": true
    },
    {
      "inputs": [
        {
          "internalType": "uint256",
          "name": "tokenId",
          "type": "uint256"
        }
      ],
      "name": "getApproved",
      "outputs": [
        {
          "internalType": "address",
          "name": "",
          "type": "address"
        }
      ],
      "stateMutability": "view",
      "type": "function",
      "constant": true
    },
    {
      "inputs": [
        {
          "internalType": "address",
          "name": "owner",
          "type": "address"
        },
        {
          "internalType": "address",
          "name": "operator",
          "type": "address"
        }
      ],
      "name": "isApprovedForAll",
      "outputs": [
        {
          "internalType": "bool",
          "name": "",
          "type": "bool"
        }
      ],
      "stateMutability": "view",
      "type": "function",
      "constant": true
    },
    {
      "inputs": [],
      "name": "mintPrice",
      "outputs": [
        {
          "internalType": "uint256",
          "name": "",
          "type": "uint256"
        }
      ],
      "stateMutability": "view",
      "type": "function",
      "constant": true
    },
    {
      "inputs": [],
      "name": "name",
      "outputs": [
        {
          "internalType": "string",
          "name": "",
          "type": "string"
        }
      ],
      "stateMutability": "view",
      "type": "function",
      "constant": true
    },
    {
      "inputs": [
        {
          "internalType": "uint256",
          "name": "",
          "type": "uint256"
        }
      ],
      "name": "nfts",
      "outputs": [
        {
          "internalType": "uint256",
          "name": "id",
          "type": "uint256"
        },
        {
          "internalType": "address",
          "name": "owner",
          "type": "address"
        },
        {
          "internalType": "bool",
          "name": "soldBefore",
          "type": "bool"
        },
        {
          "internalType": "uint256",
          "name": "price",
          "type": "uint256"
        }
      ],
      "stateMutability": "view",
      "type": "function",
      "constant": true
    },
    {
      "inputs": [],
      "name": "owner",
      "outputs": [
        {
          "internalType": "address",
          "name": "",
          "type": "address"
        }
      ],
      "stateMutability": "view",
      "type": "function",
      "constant": true
    },
    {
      "inputs": [
        {
          "internalType": "uint256",
          "name": "tokenId",
          "type": "uint256"
        }
      ],
      "name": "ownerOf",
      "outputs": [
        {
          "internalType": "address",
          "name": "",
          "type": "address"
        }
      ],
      "stateMutability": "view",
      "type": "function",
      "constant": true
    },
    {
      "inputs": [],
      "name": "renounceOwnership",
      "outputs": [],
      "stateMutability": "nonpayable",
      "type": "function"
    },
    {
      "inputs": [
        {
          "internalType": "address",
          "name": "from",
          "type": "address"
        },
        {
          "internalType": "address",
          "name": "to",
          "type": "address"
        },
        {
          "internalType": "uint256",
          "name": "tokenId",
          "type": "uint256"
        }
      ],
      "name": "safeTransferFrom",
      "outputs": [],
      "stateMutability": "nonpayable",
      "type": "function"
    },
    {
      "inputs": [
        {
          "internalType": "address",
          "name": "from",
          "type": "address"
        },
        {
          "internalType": "address",
          "name": "to",
          "type": "address"
        },
        {
          "internalType": "uint256",
          "name": "tokenId",
          "type": "uint256"
        },
        {
          "internalType": "bytes",
          "name": "data",
          "type": "bytes"
        }
      ],
      "name": "safeTransferFrom",
      "outputs": [],
      "stateMutability": "nonpayable",
      "type": "function"
    },
    {
      "inputs": [
        {
          "internalType": "address",
          "name": "operator",
          "type": "address"
        },
        {
          "internalType": "bool",
          "name": "approved",
          "type": "bool"
        }
      ],
      "name": "setApprovalForAll",
      "outputs": [],
      "stateMutability": "nonpayable",
      "type": "function"
    },
    {
      "inputs": [
        {
          "internalType": "bytes4",
          "name": "interfaceId",
          "type": "bytes4"
        }
      ],
      "name": "supportsInterface",
      "outputs": [
        {
          "internalType": "bool",
          "name": "",
          "type": "bool"
        }
      ],
      "stateMutability": "view",
      "type": "function",
      "constant": true
    },
    {
      "inputs": [],
      "name": "symbol",
      "outputs": [
        {
          "internalType": "string",
          "name": "",
          "type": "string"
        }
      ],
      "stateMutability": "view",
      "type": "function",
      "constant": true
    },
    {
      "inputs": [
        {
          "internalType": "uint256",
          "name": "tokenId",
          "type": "uint256"
        }
      ],
      "name": "tokenURI",
      "outputs": [
        {
          "internalType": "string",
          "name": "",
          "type": "string"
        }
      ],
      "stateMutability": "view",
      "type": "function",
      "constant": true
    },
    {
      "inputs": [
        {
          "internalType": "address",
          "name": "from",
          "type": "address"
        },
        {
          "internalType": "address",
          "name": "to",
          "type": "address"
        },
        {
          "internalType": "uint256",
          "name": "tokenId",
          "type": "uint256"
        }
      ],
      "name": "transferFrom",
      "outputs": [],
      "stateMutability": "nonpayable",
      "type": "function"
    },
    {
      "inputs": [
        {
          "internalType": "address",
          "name": "newOwner",
          "type": "address"
        }
      ],
      "name": "transferOwnership",
      "outputs": [],
      "stateMutability": "nonpayable",
      "type": "function"
    },
    {
      "inputs": [
        {
          "internalType": "uint256",
          "name": "_nft_price",
          "type": "uint256"
        }
      ],
      "name": "mint",
      "outputs": [],
      "stateMutability": "payable",
      "type": "function",
      "payable": true
    },
    {
      "inputs": [
        {
          "internalType": "uint256",
          "name": "_tokenID",
          "type": "uint256"
        }
      ],
      "name": "purchaseCard",
      "outputs": [],
      "stateMutability": "payable",
      "type": "function",
      "payable": true
    }
  ],
  "bytecode": "0x608060405266071afd498d00006009556000600a553480156200002157600080fd5b506040518060400160405280600f81526020017f5475726b697368466f6f7462616c6c00000000000000000000000000000000008152506040518060400160405280600a81526020017f53696d706c654d696e74000000000000000000000000000000000000000000008152506001600081905550620000b6620000aa6200014660201b60201c565b6200014e60201b60201c565b8160029081620000c791906200048e565b508060039081620000d991906200048e565b5050507308b9f93cf5bde9ddef4e4bf54df2ad5a9902f744600860006101000a81548173ffffffffffffffffffffffffffffffffffffffff021916908373ffffffffffffffffffffffffffffffffffffffff160217905550678ac7230489e8000060098190555062000575565b600033905090565b6000600160009054906101000a900473ffffffffffffffffffffffffffffffffffffffff16905081600160006101000a81548173ffffffffffffffffffffffffffffffffffffffff021916908373ffffffffffffffffffffffffffffffffffffffff1602179055508173ffffffffffffffffffffffffffffffffffffffff168173ffffffffffffffffffffffffffffffffffffffff167f8be0079c531659141344cd1fd0a4f28419497f9722a3daafe3b4186f6b6457e060405160405180910390a35050565b600081519050919050565b7f4e487b7100000000000000000000000000000000000000000000000000000000600052604160045260246000fd5b7f4e487b7100000000000000000000000000000000000000000000000000000000600052602260045260246000fd5b600060028204905060018216806200029657607f821691505b602082108103620002ac57620002ab6200024e565b5b50919050565b60008190508160005260206000209050919050565b60006020601f8301049050919050565b600082821b905092915050565b600060088302620003167fffffffffffffffffffffffffffffffffffffffffffffffffffffffffffffffff82620002d7565b620003228683620002d7565b95508019841693508086168417925050509392505050565b6000819050919050565b6000819050919050565b60006200036f6200036962000363846200033a565b62000344565b6200033a565b9050919050565b6000819050919050565b6200038b836200034e565b620003a36200039a8262000376565b848454620002e4565b825550505050565b600090565b620003ba620003ab565b620003c781848462000380565b505050565b5b81811015620003ef57620003e3600082620003b0565b600181019050620003cd565b5050565b601f8211156200043e576200040881620002b2565b6200041384620002c7565b8101602085101562000423578190505b6200043b6200043285620002c7565b830182620003cc565b50505b505050565b600082821c905092915050565b6000620004636000198460080262000443565b1980831691505092915050565b60006200047e838362000450565b9150826002028217905092915050565b620004998262000214565b67ffffffffffffffff811115620004b557620004b46200021f565b5b620004c182546200027d565b620004ce828285620003f3565b600060209050601f831160018114620005065760008415620004f1578287015190505b620004fd858262000470565b8655506200056d565b601f1984166200051686620002b2565b60005b82811015620005405784890151825560018201915060208501945060208101905062000519565b868310156200056057848901516200055c601f89168262000450565b8355505b6001600288020188555050505b505050505050565b6132f280620005856000396000f3fe60806040526004361061012a5760003560e01c8063715018a6116100ab578063a54447aa1161006f578063a54447aa146103e6578063b88d4fde14610402578063c45c20a11461042b578063c87b56dd14610456578063e985e9c514610493578063f2fde38b146104d05761012a565b8063715018a6146103345780638da5cb5b1461034b57806395d89b4114610376578063a0712d68146103a1578063a22cb465146103bd5761012a565b8063265aa621116100f2578063265aa6211461022657806342842e0e146102665780636352211e1461028f5780636817c76c146102cc57806370a08231146102f75761012a565b806301ffc9a71461012f57806306fdde031461016c578063081812fc14610197578063095ea7b3146101d457806323b872dd146101fd575b600080fd5b34801561013b57600080fd5b506101566004803603810190610151919061226c565b6104f9565b60405161016391906122b4565b60405180910390f35b34801561017857600080fd5b506101816105db565b60405161018e919061235f565b60405180910390f35b3480156101a357600080fd5b506101be60048036038101906101b991906123b7565b61066d565b6040516101cb9190612425565b60405180910390f35b3480156101e057600080fd5b506101fb60048036038101906101f6919061246c565b6106b3565b005b34801561020957600080fd5b50610224600480360381019061021f91906124ac565b6107ca565b005b34801561023257600080fd5b5061024d600480360381019061024891906123b7565b61082a565b60405161025d949392919061250e565b60405180910390f35b34801561027257600080fd5b5061028d600480360381019061028891906124ac565b610887565b005b34801561029b57600080fd5b506102b660048036038101906102b191906123b7565b6108a7565b6040516102c39190612425565b60405180910390f35b3480156102d857600080fd5b506102e161092d565b6040516102ee9190612553565b60405180910390f35b34801561030357600080fd5b5061031e6004803603810190610319919061256e565b610933565b60405161032b9190612553565b60405180910390f35b34801561034057600080fd5b506103496109ea565b005b34801561035757600080fd5b506103606109fe565b60405161036d9190612425565b60405180910390f35b34801561038257600080fd5b5061038b610a28565b604051610398919061235f565b60405180910390f35b6103bb60048036038101906103b691906123b7565b610aba565b005b3480156103c957600080fd5b506103e460048036038101906103df91906125c7565b610c70565b005b61040060048036038101906103fb91906123b7565b610c86565b005b34801561040e57600080fd5b506104296004803603810190610424919061273c565b610fc7565b005b34801561043757600080fd5b50610440611029565b60405161044d91906127e0565b60405180910390f35b34801561046257600080fd5b5061047d600480360381019061047891906123b7565b61104f565b60405161048a919061235f565b60405180910390f35b34801561049f57600080fd5b506104ba60048036038101906104b591906127fb565b6110b7565b6040516104c791906122b4565b60405180910390f35b3480156104dc57600080fd5b506104f760048036038101906104f2919061256e565b61114b565b005b60007f80ac58cd000000000000000000000000000000000000000000000000000000007bffffffffffffffffffffffffffffffffffffffffffffffffffffffff1916827bffffffffffffffffffffffffffffffffffffffffffffffffffffffff191614806105c457507f5b5e139f000000000000000000000000000000000000000000000000000000007bffffffffffffffffffffffffffffffffffffffffffffffffffffffff1916827bffffffffffffffffffffffffffffffffffffffffffffffffffffffff1916145b806105d457506105d3826111ce565b5b9050919050565b6060600280546105ea9061286a565b80601f01602080910402602001604051908101604052809291908181526020018280546106169061286a565b80156106635780601f1061063857610100808354040283529160200191610663565b820191906000526020600020905b81548152906001019060200180831161064657829003601f168201915b5050505050905090565b600061067882611238565b6006600083815260200190815260200160002060009054906101000a900473ffffffffffffffffffffffffffffffffffffffff169050919050565b60006106be826108a7565b90508073ffffffffffffffffffffffffffffffffffffffff168373ffffffffffffffffffffffffffffffffffffffff160361072e576040517f08c379a00000000000000000000000000000000000000000000000000000000081526004016107259061290d565b60405180910390fd5b8073ffffffffffffffffffffffffffffffffffffffff1661074d611283565b73ffffffffffffffffffffffffffffffffffffffff16148061077c575061077b81610776611283565b6110b7565b5b6107bb576040517f08c379a00000000000000000000000000000000000000000000000000000000081526004016107b29061299f565b60405180910390fd5b6107c5838361128b565b505050565b6107db6107d5611283565b82611344565b61081a576040517f08c379a000000000000000000000000000000000000000000000000000000000815260040161081190612a31565b60405180910390fd5b6108258383836113d9565b505050565b600b6020528060005260406000206000915090508060000154908060010160009054906101000a900473ffffffffffffffffffffffffffffffffffffffff16908060010160149054906101000a900460ff16908060020154905084565b6108a283838360405180602001604052806000815250610fc7565b505050565b6000806108b3836116d2565b9050600073ffffffffffffffffffffffffffffffffffffffff168173ffffffffffffffffffffffffffffffffffffffff1603610924576040517f08c379a000000000000000000000000000000000000000000000000000000000815260040161091b90612a9d565b60405180910390fd5b80915050919050565b60095481565b60008073ffffffffffffffffffffffffffffffffffffffff168273ffffffffffffffffffffffffffffffffffffffff16036109a3576040517f08c379a000000000000000000000000000000000000000000000000000000000815260040161099a90612b2f565b60405180910390fd5b600560008373ffffffffffffffffffffffffffffffffffffffff1673ffffffffffffffffffffffffffffffffffffffff168152602001908152602001600020549050919050565b6109f261170f565b6109fc600061178d565b565b6000600160009054906101000a900473ffffffffffffffffffffffffffffffffffffffff16905090565b606060038054610a379061286a565b80601f0160208091040260200160405190810160405280929190818152602001828054610a639061286a565b8015610ab05780601f10610a8557610100808354040283529160200191610ab0565b820191906000526020600020905b815481529060010190602001808311610a9357829003601f168201915b5050505050905090565b610ac261170f565b600860009054906101000a900473ffffffffffffffffffffffffffffffffffffffff1673ffffffffffffffffffffffffffffffffffffffff163373ffffffffffffffffffffffffffffffffffffffff1614610b1c57600080fd5b6009543414610b2a57600080fd5b60006040518060800160405280600a548152602001600860009054906101000a900473ffffffffffffffffffffffffffffffffffffffff1673ffffffffffffffffffffffffffffffffffffffff16815260200160001515815260200183815250905080600b6000600a5481526020019081526020016000206000820151816000015560208201518160010160006101000a81548173ffffffffffffffffffffffffffffffffffffffff021916908373ffffffffffffffffffffffffffffffffffffffff16021790555060408201518160010160146101000a81548160ff02191690831515021790555060608201518160020155905050600a6000815480929190610c3390612b7e565b91905055506000600a549050610c6b600860009054906101000a900473ffffffffffffffffffffffffffffffffffffffff1682611853565b505050565b610c82610c7b611283565b8383611871565b5050565b60008110158015610c995750600a548111155b610ca257600080fd5b6000610cad826108a7565b90506000600b6000848152602001908152602001600020604051806080016040529081600082015481526020016001820160009054906101000a900473ffffffffffffffffffffffffffffffffffffffff1673ffffffffffffffffffffffffffffffffffffffff1673ffffffffffffffffffffffffffffffffffffffff1681526020016001820160149054906101000a900460ff161515151581526020016002820154815250509050600860009054906101000a900473ffffffffffffffffffffffffffffffffffffffff1673ffffffffffffffffffffffffffffffffffffffff168273ffffffffffffffffffffffffffffffffffffffff1614610de6576040517f08c379a0000000000000000000000000000000000000000000000000000000008152600401610ddd90612c5e565b60405180910390fd5b8060600151341015610e2d576040517f08c379a0000000000000000000000000000000000000000000000000000000008152600401610e2490612cca565b60405180910390fd5b600860009054906101000a900473ffffffffffffffffffffffffffffffffffffffff1673ffffffffffffffffffffffffffffffffffffffff166108fc349081150290604051600060405180830381858888f19350505050158015610e95573d6000803e3d6000fd5b50610ea1823385610887565b33816020019073ffffffffffffffffffffffffffffffffffffffff16908173ffffffffffffffffffffffffffffffffffffffff1681525050600181604001901515908115158152505080600b60008581526020019081526020016000206000820151816000015560208201518160010160006101000a81548173ffffffffffffffffffffffffffffffffffffffff021916908373ffffffffffffffffffffffffffffffffffffffff16021790555060408201518160010160146101000a81548160ff021916908315150217905550606082015181600201559050507fe6f937eba12ea654073a42ae5c30ac6dfbd7fad6d1a1b7d1b36e4df368e979e183826020015160018460600151604051610fba949392919061250e565b60405180910390a1505050565b610fd8610fd2611283565b83611344565b611017576040517f08c379a000000000000000000000000000000000000000000000000000000000815260040161100e90612a31565b60405180910390fd5b611023848484846119dd565b50505050565b600860009054906101000a900473ffffffffffffffffffffffffffffffffffffffff1681565b606061105a82611238565b6000611064611a39565b9050600081511161108457604051806020016040528060008152506110af565b8061108e84611a50565b60405160200161109f929190612d26565b6040516020818303038152906040525b915050919050565b6000600760008473ffffffffffffffffffffffffffffffffffffffff1673ffffffffffffffffffffffffffffffffffffffff16815260200190815260200160002060008373ffffffffffffffffffffffffffffffffffffffff1673ffffffffffffffffffffffffffffffffffffffff16815260200190815260200160002060009054906101000a900460ff16905092915050565b61115361170f565b600073ffffffffffffffffffffffffffffffffffffffff168173ffffffffffffffffffffffffffffffffffffffff16036111c2576040517f08c379a00000000000000000000000000000000000000000000000000000000081526004016111b990612dbc565b60405180910390fd5b6111cb8161178d565b50565b60007f01ffc9a7000000000000000000000000000000000000000000000000000000007bffffffffffffffffffffffffffffffffffffffffffffffffffffffff1916827bffffffffffffffffffffffffffffffffffffffffffffffffffffffff1916149050919050565b61124181611b1e565b611280576040517f08c379a000000000000000000000000000000000000000000000000000000000815260040161127790612a9d565b60405180910390fd5b50565b600033905090565b816006600083815260200190815260200160002060006101000a81548173ffffffffffffffffffffffffffffffffffffffff021916908373ffffffffffffffffffffffffffffffffffffffff160217905550808273ffffffffffffffffffffffffffffffffffffffff166112fe836108a7565b73ffffffffffffffffffffffffffffffffffffffff167f8c5be1e5ebec7d5bd14f71427d1e84f3dd0314c0f7b2291e5b200ac8c7c3b92560405160405180910390a45050565b600080611350836108a7565b90508073ffffffffffffffffffffffffffffffffffffffff168473ffffffffffffffffffffffffffffffffffffffff161480611392575061139181856110b7565b5b806113d057508373ffffffffffffffffffffffffffffffffffffffff166113b88461066d565b73ffffffffffffffffffffffffffffffffffffffff16145b91505092915050565b8273ffffffffffffffffffffffffffffffffffffffff166113f9826108a7565b73ffffffffffffffffffffffffffffffffffffffff161461144f576040517f08c379a000000000000000000000000000000000000000000000000000000000815260040161144690612e4e565b60405180910390fd5b600073ffffffffffffffffffffffffffffffffffffffff168273ffffffffffffffffffffffffffffffffffffffff16036114be576040517f08c379a00000000000000000000000000000000000000000000000000000000081526004016114b590612ee0565b60405180910390fd5b6114cb8383836001611b5f565b8273ffffffffffffffffffffffffffffffffffffffff166114eb826108a7565b73ffffffffffffffffffffffffffffffffffffffff1614611541576040517f08c379a000000000000000000000000000000000000000000000000000000000815260040161153890612e4e565b60405180910390fd5b6006600082815260200190815260200160002060006101000a81549073ffffffffffffffffffffffffffffffffffffffff02191690556001600560008573ffffffffffffffffffffffffffffffffffffffff1673ffffffffffffffffffffffffffffffffffffffff168152602001908152602001600020600082825403925050819055506001600560008473ffffffffffffffffffffffffffffffffffffffff1673ffffffffffffffffffffffffffffffffffffffff16815260200190815260200160002060008282540192505081905550816004600083815260200190815260200160002060006101000a81548173ffffffffffffffffffffffffffffffffffffffff021916908373ffffffffffffffffffffffffffffffffffffffff160217905550808273ffffffffffffffffffffffffffffffffffffffff168473ffffffffffffffffffffffffffffffffffffffff167fddf252ad1be2c89b69c2b068fc378daa952ba7f163c4a11628f55a4df523b3ef60405160405180910390a46116cd8383836001611c85565b505050565b60006004600083815260200190815260200160002060009054906101000a900473ffffffffffffffffffffffffffffffffffffffff169050919050565b611717611283565b73ffffffffffffffffffffffffffffffffffffffff166117356109fe565b73ffffffffffffffffffffffffffffffffffffffff161461178b576040517f08c379a000000000000000000000000000000000000000000000000000000000815260040161178290612f4c565b60405180910390fd5b565b6000600160009054906101000a900473ffffffffffffffffffffffffffffffffffffffff16905081600160006101000a81548173ffffffffffffffffffffffffffffffffffffffff021916908373ffffffffffffffffffffffffffffffffffffffff1602179055508173ffffffffffffffffffffffffffffffffffffffff168173ffffffffffffffffffffffffffffffffffffffff167f8be0079c531659141344cd1fd0a4f28419497f9722a3daafe3b4186f6b6457e060405160405180910390a35050565b61186d828260405180602001604052806000815250611c8b565b5050565b8173ffffffffffffffffffffffffffffffffffffffff168373ffffffffffffffffffffffffffffffffffffffff16036118df576040517f08c379a00000000000000000000000000000000000000000000000000000000081526004016118d690612fb8565b60405180910390fd5b80600760008573ffffffffffffffffffffffffffffffffffffffff1673ffffffffffffffffffffffffffffffffffffffff16815260200190815260200160002060008473ffffffffffffffffffffffffffffffffffffffff1673ffffffffffffffffffffffffffffffffffffffff16815260200190815260200160002060006101000a81548160ff0219169083151502179055508173ffffffffffffffffffffffffffffffffffffffff168373ffffffffffffffffffffffffffffffffffffffff167f17307eab39ab6107e8899845ad3d59bd9653f200f220920489ca2b5937696c31836040516119d091906122b4565b60405180910390a3505050565b6119e88484846113d9565b6119f484848484611ce6565b611a33576040517f08c379a0000000000000000000000000000000000000000000000000000000008152600401611a2a9061304a565b60405180910390fd5b50505050565b606060405180602001604052806000815250905090565b606060006001611a5f84611e6d565b01905060008167ffffffffffffffff811115611a7e57611a7d612611565b5b6040519080825280601f01601f191660200182016040528015611ab05781602001600182028036833780820191505090505b509050600082602001820190505b600115611b13578080600190039150507f3031323334353637383961626364656600000000000000000000000000000000600a86061a8153600a8581611b0757611b0661306a565b5b04945060008503611abe575b819350505050919050565b60008073ffffffffffffffffffffffffffffffffffffffff16611b40836116d2565b73ffffffffffffffffffffffffffffffffffffffff1614159050919050565b6001811115611c7f57600073ffffffffffffffffffffffffffffffffffffffff168473ffffffffffffffffffffffffffffffffffffffff1614611bf35780600560008673ffffffffffffffffffffffffffffffffffffffff1673ffffffffffffffffffffffffffffffffffffffff1681526020019081526020016000206000828254611beb9190613099565b925050819055505b600073ffffffffffffffffffffffffffffffffffffffff168373ffffffffffffffffffffffffffffffffffffffff1614611c7e5780600560008573ffffffffffffffffffffffffffffffffffffffff1673ffffffffffffffffffffffffffffffffffffffff1681526020019081526020016000206000828254611c7691906130cd565b925050819055505b5b50505050565b50505050565b611c958383611fc0565b611ca26000848484611ce6565b611ce1576040517f08c379a0000000000000000000000000000000000000000000000000000000008152600401611cd89061304a565b60405180910390fd5b505050565b6000611d078473ffffffffffffffffffffffffffffffffffffffff166121dd565b15611e60578373ffffffffffffffffffffffffffffffffffffffff1663150b7a02611d30611283565b8786866040518563ffffffff1660e01b8152600401611d529493929190613156565b6020604051808303816000875af1925050508015611d8e57506040513d601f19601f82011682018060405250810190611d8b91906131b7565b60015b611e10573d8060008114611dbe576040519150601f19603f3d011682016040523d82523d6000602084013e611dc3565b606091505b506000815103611e08576040517f08c379a0000000000000000000000000000000000000000000000000000000008152600401611dff9061304a565b60405180910390fd5b805181602001fd5b63150b7a0260e01b7bffffffffffffffffffffffffffffffffffffffffffffffffffffffff1916817bffffffffffffffffffffffffffffffffffffffffffffffffffffffff191614915050611e65565b600190505b949350505050565b600080600090507a184f03e93ff9f4daa797ed6e38ed64bf6a1f0100000000000000008310611ecb577a184f03e93ff9f4daa797ed6e38ed64bf6a1f0100000000000000008381611ec157611ec061306a565b5b0492506040810190505b6d04ee2d6d415b85acef81000000008310611f08576d04ee2d6d415b85acef81000000008381611efe57611efd61306a565b5b0492506020810190505b662386f26fc100008310611f3757662386f26fc100008381611f2d57611f2c61306a565b5b0492506010810190505b6305f5e1008310611f60576305f5e1008381611f5657611f5561306a565b5b0492506008810190505b6127108310611f85576127108381611f7b57611f7a61306a565b5b0492506004810190505b60648310611fa85760648381611f9e57611f9d61306a565b5b0492506002810190505b600a8310611fb7576001810190505b80915050919050565b600073ffffffffffffffffffffffffffffffffffffffff168273ffffffffffffffffffffffffffffffffffffffff160361202f576040517f08c379a000000000000000000000000000000000000000000000000000000000815260040161202690613230565b60405180910390fd5b61203881611b1e565b15612078576040517f08c379a000000000000000000000000000000000000000000000000000000000815260040161206f9061329c565b60405180910390fd5b612086600083836001611b5f565b61208f81611b1e565b156120cf576040517f08c379a00000000000000000000000000000000000000000000000000000000081526004016120c69061329c565b60405180910390fd5b6001600560008473ffffffffffffffffffffffffffffffffffffffff1673ffffffffffffffffffffffffffffffffffffffff16815260200190815260200160002060008282540192505081905550816004600083815260200190815260200160002060006101000a81548173ffffffffffffffffffffffffffffffffffffffff021916908373ffffffffffffffffffffffffffffffffffffffff160217905550808273ffffffffffffffffffffffffffffffffffffffff16600073ffffffffffffffffffffffffffffffffffffffff167fddf252ad1be2c89b69c2b068fc378daa952ba7f163c4a11628f55a4df523b3ef60405160405180910390a46121d9600083836001611c85565b5050565b6000808273ffffffffffffffffffffffffffffffffffffffff163b119050919050565b6000604051905090565b600080fd5b600080fd5b60007fffffffff0000000000000000000000000000000000000000000000000000000082169050919050565b61224981612214565b811461225457600080fd5b50565b60008135905061226681612240565b92915050565b6000602082840312156122825761228161220a565b5b600061229084828501612257565b91505092915050565b60008115159050919050565b6122ae81612299565b82525050565b60006020820190506122c960008301846122a5565b92915050565b600081519050919050565b600082825260208201905092915050565b60005b838110156123095780820151818401526020810190506122ee565b60008484015250505050565b6000601f19601f8301169050919050565b6000612331826122cf565b61233b81856122da565b935061234b8185602086016122eb565b61235481612315565b840191505092915050565b600060208201905081810360008301526123798184612326565b905092915050565b6000819050919050565b61239481612381565b811461239f57600080fd5b50565b6000813590506123b18161238b565b92915050565b6000602082840312156123cd576123cc61220a565b5b60006123db848285016123a2565b91505092915050565b600073ffffffffffffffffffffffffffffffffffffffff82169050919050565b600061240f826123e4565b9050919050565b61241f81612404565b82525050565b600060208201905061243a6000830184612416565b92915050565b61244981612404565b811461245457600080fd5b50565b60008135905061246681612440565b92915050565b600080604083850312156124835761248261220a565b5b600061249185828601612457565b92505060206124a2858286016123a2565b9150509250929050565b6000806000606084860312156124c5576124c461220a565b5b60006124d386828701612457565b93505060206124e486828701612457565b92505060406124f5868287016123a2565b9150509250925092565b61250881612381565b82525050565b600060808201905061252360008301876124ff565b6125306020830186612416565b61253d60408301856122a5565b61254a60608301846124ff565b95945050505050565b600060208201905061256860008301846124ff565b92915050565b6000602082840312156125845761258361220a565b5b600061259284828501612457565b91505092915050565b6125a481612299565b81146125af57600080fd5b50565b6000813590506125c18161259b565b92915050565b600080604083850312156125de576125dd61220a565b5b60006125ec85828601612457565b92505060206125fd858286016125b2565b9150509250929050565b600080fd5b600080fd5b7f4e487b7100000000000000000000000000000000000000000000000000000000600052604160045260246000fd5b61264982612315565b810181811067ffffffffffffffff8211171561266857612667612611565b5b80604052505050565b600061267b612200565b90506126878282612640565b919050565b600067ffffffffffffffff8211156126a7576126a6612611565b5b6126b082612315565b9050602081019050919050565b82818337600083830152505050565b60006126df6126da8461268c565b612671565b9050828152602081018484840111156126fb576126fa61260c565b5b6127068482856126bd565b509392505050565b600082601f83011261272357612722612607565b5b81356127338482602086016126cc565b91505092915050565b600080600080608085870312156127565761275561220a565b5b600061276487828801612457565b945050602061277587828801612457565b9350506040612786878288016123a2565b925050606085013567ffffffffffffffff8111156127a7576127a661220f565b5b6127b38782880161270e565b91505092959194509250565b60006127ca826123e4565b9050919050565b6127da816127bf565b82525050565b60006020820190506127f560008301846127d1565b92915050565b600080604083850312156128125761281161220a565b5b600061282085828601612457565b925050602061283185828601612457565b9150509250929050565b7f4e487b7100000000000000000000000000000000000000000000000000000000600052602260045260246000fd5b6000600282049050600182168061288257607f821691505b6020821081036128955761289461283b565b5b50919050565b7f4552433732313a20617070726f76616c20746f2063757272656e74206f776e6560008201527f7200000000000000000000000000000000000000000000000000000000000000602082015250565b60006128f76021836122da565b91506129028261289b565b604082019050919050565b60006020820190508181036000830152612926816128ea565b9050919050565b7f4552433732313a20617070726f76652063616c6c6572206973206e6f7420746f60008201527f6b656e206f776e6572206f7220617070726f76656420666f7220616c6c000000602082015250565b6000612989603d836122da565b91506129948261292d565b604082019050919050565b600060208201905081810360008301526129b88161297c565b9050919050565b7f4552433732313a2063616c6c6572206973206e6f7420746f6b656e206f776e6560008201527f72206f7220617070726f76656400000000000000000000000000000000000000602082015250565b6000612a1b602d836122da565b9150612a26826129bf565b604082019050919050565b60006020820190508181036000830152612a4a81612a0e565b9050919050565b7f4552433732313a20696e76616c696420746f6b656e2049440000000000000000600082015250565b6000612a876018836122da565b9150612a9282612a51565b602082019050919050565b60006020820190508181036000830152612ab681612a7a565b9050919050565b7f4552433732313a2061646472657373207a65726f206973206e6f74206120766160008201527f6c6964206f776e65720000000000000000000000000000000000000000000000602082015250565b6000612b196029836122da565b9150612b2482612abd565b604082019050919050565b60006020820190508181036000830152612b4881612b0c565b9050919050565b7f4e487b7100000000000000000000000000000000000000000000000000000000600052601160045260246000fd5b6000612b8982612381565b91507fffffffffffffffffffffffffffffffffffffffffffffffffffffffffffffffff8203612bbb57612bba612b4f565b5b600182019050919050565b7f496e76616c6964206f776e65722c206e667420646f6573206e6f742062656c6f60008201527f6e6720746f20746865205475726b69736820666f6f7462616c6c206173736f6360208201527f696174696f6e0000000000000000000000000000000000000000000000000000604082015250565b6000612c486046836122da565b9150612c5382612bc6565b606082019050919050565b60006020820190508181036000830152612c7781612c3b565b9050919050565b7f556e73756666696369656e742066756e64730000000000000000000000000000600082015250565b6000612cb46012836122da565b9150612cbf82612c7e565b602082019050919050565b60006020820190508181036000830152612ce381612ca7565b9050919050565b600081905092915050565b6000612d00826122cf565b612d0a8185612cea565b9350612d1a8185602086016122eb565b80840191505092915050565b6000612d328285612cf5565b9150612d3e8284612cf5565b91508190509392505050565b7f4f776e61626c653a206e6577206f776e657220697320746865207a65726f206160008201527f6464726573730000000000000000000000000000000000000000000000000000602082015250565b6000612da66026836122da565b9150612db182612d4a565b604082019050919050565b60006020820190508181036000830152612dd581612d99565b9050919050565b7f4552433732313a207472616e736665722066726f6d20696e636f72726563742060008201527f6f776e6572000000000000000000000000000000000000000000000000000000602082015250565b6000612e386025836122da565b9150612e4382612ddc565b604082019050919050565b60006020820190508181036000830152612e6781612e2b565b9050919050565b7f4552433732313a207472616e7366657220746f20746865207a65726f2061646460008201527f7265737300000000000000000000000000000000000000000000000000000000602082015250565b6000612eca6024836122da565b9150612ed582612e6e565b604082019050919050565b60006020820190508181036000830152612ef981612ebd565b9050919050565b7f4f776e61626c653a2063616c6c6572206973206e6f7420746865206f776e6572600082015250565b6000612f366020836122da565b9150612f4182612f00565b602082019050919050565b60006020820190508181036000830152612f6581612f29565b9050919050565b7f4552433732313a20617070726f766520746f2063616c6c657200000000000000600082015250565b6000612fa26019836122da565b9150612fad82612f6c565b602082019050919050565b60006020820190508181036000830152612fd181612f95565b9050919050565b7f4552433732313a207472616e7366657220746f206e6f6e20455243373231526560008201527f63656976657220696d706c656d656e7465720000000000000000000000000000602082015250565b60006130346032836122da565b915061303f82612fd8565b604082019050919050565b6000602082019050818103600083015261306381613027565b9050919050565b7f4e487b7100000000000000000000000000000000000000000000000000000000600052601260045260246000fd5b60006130a482612381565b91506130af83612381565b92508282039050818111156130c7576130c6612b4f565b5b92915050565b60006130d882612381565b91506130e383612381565b92508282019050808211156130fb576130fa612b4f565b5b92915050565b600081519050919050565b600082825260208201905092915050565b600061312882613101565b613132818561310c565b93506131428185602086016122eb565b61314b81612315565b840191505092915050565b600060808201905061316b6000830187612416565b6131786020830186612416565b61318560408301856124ff565b8181036060830152613197818461311d565b905095945050505050565b6000815190506131b181612240565b92915050565b6000602082840312156131cd576131cc61220a565b5b60006131db848285016131a2565b91505092915050565b7f4552433732313a206d696e7420746f20746865207a65726f2061646472657373600082015250565b600061321a6020836122da565b9150613225826131e4565b602082019050919050565b600060208201905081810360008301526132498161320d565b9050919050565b7f4552433732313a20746f6b656e20616c7265616479206d696e74656400000000600082015250565b6000613286601c836122da565b915061329182613250565b602082019050919050565b600060208201905081810360008301526132b581613279565b905091905056fea264697066735822122059a1cdce94df0e3ec77f511153fa1cf0ff5471f55fdbb532239c002ef355808a64736f6c63430008110033",
  "immutableReferences": {},
  "source": "pragma solidity >=0.4.24  <=0.8.17;\r\n\r\n//import {ERC721} from \"@openzeppelin-solidity/contracts/token/ERC721/ERC721.sol\";\r\n//import {ReentrancyGuard} from \"@openzeppelin-solidity/contracts/ReentrancyGuard.sol\";\r\n//import {Ownable} from \"@openzeppelin-solidity/contracts/ownership/Ownable.sol\";\r\nimport \"@openzeppelin/contracts/token/ERC721/ERC721.sol\";\r\nimport \"@openzeppelin/contracts/security/ReentrancyGuard.sol\";\r\nimport \"@openzeppelin/contracts/access/Ownable.sol\";\r\n\r\n\r\n/// @notice Smart Contract for the nft marketplace of the turkish football assocition\r\n/// @dev Must receive payments for nft's (sell nfts), verify their creators id, create nfts\r\n\r\ncontract TurkishFootballCards is ReentrancyGuard, Ownable, ERC721\r\n{\r\n    address payable public TF_owner;\r\n    uint256 public mintPrice = 0.002 ether;\r\n    uint256 nftCount = 0;\r\n    mapping(uint256 => card) public nfts;\r\n\r\n    \r\n    struct card\r\n    {\r\n        uint256 id;\r\n        address owner;\r\n        bool soldBefore; \r\n        uint256 price;\r\n    }\r\n\r\n    event nft_sold\r\n    (\r\n        uint256 id,\r\n        address owner,\r\n        bool soldBefore,\r\n        uint256 price\r\n    );\r\n\r\n\r\n    constructor() ERC721('TurkishFootball','SimpleMint')\r\n    {\r\n        TF_owner = payable(0x08B9F93cf5bde9dDEf4E4BF54df2aD5A9902f744);\r\n        //nftMinter = 'address of the turkish football federation'; \r\n        mintPrice = 10 ether;\r\n    }\r\n\r\n    \r\n    function mint(uint256 _nft_price) external onlyOwner payable\r\n    {\r\n        //this funtion is responsible for the minting of new coins\r\n        //only the Turkish Football federation is supposed to be able to mint\r\n        require(msg.sender == TF_owner);\r\n        //the message value should be equal to the minting cost\r\n        require(msg.value == mintPrice);\r\n        \r\n        //creating the new nft in the marketplace\r\n        card memory _new_nft = card({id: nftCount, owner: TF_owner, soldBefore: false, price: _nft_price});\r\n        \r\n        nfts[nftCount] = _new_nft;\r\n        nftCount++;\r\n\r\n        //actually creating the nft in the\r\n        uint256 TokenID = nftCount;\r\n        _safeMint(TF_owner, TokenID); //emits a {Transfer} event\r\n\r\n\r\n\r\n    }\r\n\r\n    //this version of the funtion in gonna diiiieee\r\n    //this is a normal marketplace, now, let us change it to a nft marketplace\r\n    /*\r\n    function purchaseCard(uint256 _id) public external payable\r\n    {\r\n        //check correct id\r\n        require(_id >= 0 && _id <= nftCount);\r\n        //check if valid creator/current owner\r\n        card memory _nft_card = nfts[_id]; \r\n        require(_nft_card.owner == TF_owner);\r\n        //check if it's been sold\r\n        require(!_nft_card.soldBefore);\r\n        //check price/funds\r\n        require(msg.value >= _nft_card.price);\r\n        //change owner\r\n        //_nft_card.owner = msg.sender; we should use the proper thing to tdo this, aka ERC721\r\n        //mark as sold\r\n        _nft_card.soldBefore = true;\r\n        //update nft list\r\n        nfts[_id] = _nft_card;\r\n        //transfer funds\r\n        TF_owner.transfer(msg.value);\r\n        //trigger event\r\n        emit nft_sold(_id, _nft_card.owner,_nft_card.nftID, true, _nft_card.price);\r\n\r\n    }*/\r\n\r\n\r\n\r\n    //new version of the purchaseCard, using the standard ERC721\r\n    function purchaseCard(uint256 _tokenID) external payable\r\n    {\r\n        //check correct id\r\n        require(_tokenID >= 0 && _tokenID <= nftCount);\r\n        //load nft information\r\n        address owner = ownerOf(_tokenID);\r\n        card memory _cardToSell = nfts[_tokenID];\r\n        require(owner == TF_owner, \"Invalid owner, nft does not belong to the Turkish football association\");\r\n        //check for funds \r\n        require(msg.value >= _cardToSell.price, \"Unsufficient funds\");\r\n        //tranfer the funds (fund value can change after calling external functions, aka the safeTransferFrom)\r\n        TF_owner.transfer(msg.value); // maybe not use this because of the Istambull fork and change in gas prices (not safe anymore)\r\n        //transfer the nft\r\n        safeTransferFrom(owner, msg.sender,_tokenID);\r\n        //update the cards info\r\n        _cardToSell.owner = msg.sender;\r\n        _cardToSell.soldBefore = true;\r\n        nfts[_tokenID] = _cardToSell;\r\n        //event to log this, maybe not do it, cause the safeTransferFrom function already emits a {Transfer} event\r\n        emit nft_sold(_tokenID, _cardToSell.owner, true, _cardToSell.price);\r\n\r\n    }\r\n\r\n    \r\n}\r\n",
  "sourcePath": "C:\\Users\\ricar\\OneDrive\\22_23 1 Semestre\\Blockchain\\Blockchain Project\\Projeto CS48001\\CS48001-NFT-marketplace\\contracts\\NftMarketplace.sol",
  "compiler": {
    "name": "solc",
    "version": "0.8.17+commit.8df45f5f.Emscripten.clang"
  },
  "schemaVersion": "3.4.11",
  "updatedAt": "2023-01-11T14:03:00.123Z",
  "networkType": "ethereum",
  "devdoc": {
    "details": "Must receive payments for nft's (sell nfts), verify their creators id, create nfts",
    "kind": "dev",
    "methods": {
      "approve(address,uint256)": {
        "details": "See {IERC721-approve}."
      },
      "balanceOf(address)": {
        "details": "See {IERC721-balanceOf}."
      },
      "getApproved(uint256)": {
        "details": "See {IERC721-getApproved}."
      },
      "isApprovedForAll(address,address)": {
        "details": "See {IERC721-isApprovedForAll}."
      },
      "name()": {
        "details": "See {IERC721Metadata-name}."
      },
      "owner()": {
        "details": "Returns the address of the current owner."
      },
      "ownerOf(uint256)": {
        "details": "See {IERC721-ownerOf}."
      },
      "renounceOwnership()": {
        "details": "Leaves the contract without owner. It will not be possible to call `onlyOwner` functions anymore. Can only be called by the current owner. NOTE: Renouncing ownership will leave the contract without an owner, thereby removing any functionality that is only available to the owner."
      },
      "safeTransferFrom(address,address,uint256)": {
        "details": "See {IERC721-safeTransferFrom}."
      },
      "safeTransferFrom(address,address,uint256,bytes)": {
        "details": "See {IERC721-safeTransferFrom}."
      },
      "setApprovalForAll(address,bool)": {
        "details": "See {IERC721-setApprovalForAll}."
      },
      "supportsInterface(bytes4)": {
        "details": "See {IERC165-supportsInterface}."
      },
      "symbol()": {
        "details": "See {IERC721Metadata-symbol}."
      },
      "tokenURI(uint256)": {
        "details": "See {IERC721Metadata-tokenURI}."
      },
      "transferFrom(address,address,uint256)": {
        "details": "See {IERC721-transferFrom}."
      },
      "transferOwnership(address)": {
        "details": "Transfers ownership of the contract to a new account (`newOwner`). Can only be called by the current owner."
      }
    },
    "version": 1
  },
  "userdoc": {
    "kind": "user",
    "methods": {},
    "notice": "Smart Contract for the nft marketplace of the turkish football assocition",
    "version": 1
  }
}