{
  "contractName": "TurkishFootballCards",
  "abi": [
    {
      "inputs": [],
      "stateMutability": "nonpayable",
      "type": "constructor"
    },
    {
      "anonymous": false,
      "inputs": [
        {
          "indexed": true,
          "internalType": "address",
          "name": "owner",
          "type": "address"
        },
        {
          "indexed": true,
          "internalType": "address",
          "name": "approved",
          "type": "address"
        },
        {
          "indexed": true,
          "internalType": "uint256",
          "name": "tokenId",
          "type": "uint256"
        }
      ],
      "name": "Approval",
      "type": "event"
    },
    {
      "anonymous": false,
      "inputs": [
        {
          "indexed": true,
          "internalType": "address",
          "name": "owner",
          "type": "address"
        },
        {
          "indexed": true,
          "internalType": "address",
          "name": "operator",
          "type": "address"
        },
        {
          "indexed": false,
          "internalType": "bool",
          "name": "approved",
          "type": "bool"
        }
      ],
      "name": "ApprovalForAll",
      "type": "event"
    },
    {
      "anonymous": false,
      "inputs": [
        {
          "indexed": true,
          "internalType": "address",
          "name": "previousOwner",
          "type": "address"
        },
        {
          "indexed": true,
          "internalType": "address",
          "name": "newOwner",
          "type": "address"
        }
      ],
      "name": "OwnershipTransferred",
      "type": "event"
    },
    {
      "anonymous": false,
      "inputs": [
        {
          "indexed": true,
          "internalType": "address",
          "name": "from",
          "type": "address"
        },
        {
          "indexed": true,
          "internalType": "address",
          "name": "to",
          "type": "address"
        },
        {
          "indexed": true,
          "internalType": "uint256",
          "name": "tokenId",
          "type": "uint256"
        }
      ],
      "name": "Transfer",
      "type": "event"
    },
    {
      "anonymous": false,
      "inputs": [
        {
          "indexed": false,
          "internalType": "uint256",
          "name": "id",
          "type": "uint256"
        },
        {
          "indexed": false,
          "internalType": "address",
          "name": "owner",
          "type": "address"
        },
        {
          "indexed": false,
          "internalType": "bool",
          "name": "soldBefore",
          "type": "bool"
        },
        {
          "indexed": false,
          "internalType": "uint256",
          "name": "price",
          "type": "uint256"
        }
      ],
      "name": "nft_created",
      "type": "event"
    },
    {
      "anonymous": false,
      "inputs": [
        {
          "indexed": false,
          "internalType": "uint256",
          "name": "id",
          "type": "uint256"
        },
        {
          "indexed": false,
          "internalType": "address",
          "name": "owner",
          "type": "address"
        },
        {
          "indexed": false,
          "internalType": "bool",
          "name": "soldBefore",
          "type": "bool"
        },
        {
          "indexed": false,
          "internalType": "uint256",
          "name": "price",
          "type": "uint256"
        }
      ],
      "name": "nft_sold",
      "type": "event"
    },
    {
      "stateMutability": "nonpayable",
      "type": "fallback"
    },
    {
      "inputs": [],
      "name": "TF_owner",
      "outputs": [
        {
          "internalType": "address payable",
          "name": "",
          "type": "address"
        }
      ],
      "stateMutability": "view",
      "type": "function"
    },
    {
      "inputs": [
        {
          "internalType": "address",
          "name": "to",
          "type": "address"
        },
        {
          "internalType": "uint256",
          "name": "tokenId",
          "type": "uint256"
        }
      ],
      "name": "approve",
      "outputs": [],
      "stateMutability": "nonpayable",
      "type": "function"
    },
    {
      "inputs": [
        {
          "internalType": "address",
          "name": "owner",
          "type": "address"
        }
      ],
      "name": "balanceOf",
      "outputs": [
        {
          "internalType": "uint256",
          "name": "",
          "type": "uint256"
        }
      ],
      "stateMutability": "view",
      "type": "function"
    },
    {
      "inputs": [
        {
          "internalType": "uint256",
          "name": "tokenId",
          "type": "uint256"
        }
      ],
      "name": "getApproved",
      "outputs": [
        {
          "internalType": "address",
          "name": "",
          "type": "address"
        }
      ],
      "stateMutability": "view",
      "type": "function"
    },
    {
      "inputs": [
        {
          "internalType": "address",
          "name": "owner",
          "type": "address"
        },
        {
          "internalType": "address",
          "name": "operator",
          "type": "address"
        }
      ],
      "name": "isApprovedForAll",
      "outputs": [
        {
          "internalType": "bool",
          "name": "",
          "type": "bool"
        }
      ],
      "stateMutability": "view",
      "type": "function"
    },
    {
      "inputs": [],
      "name": "mintPrice",
      "outputs": [
        {
          "internalType": "uint256",
          "name": "",
          "type": "uint256"
        }
      ],
      "stateMutability": "view",
      "type": "function"
    },
    {
      "inputs": [],
      "name": "name",
      "outputs": [
        {
          "internalType": "string",
          "name": "",
          "type": "string"
        }
      ],
      "stateMutability": "view",
      "type": "function"
    },
    {
      "inputs": [],
      "name": "nftCount",
      "outputs": [
        {
          "internalType": "uint256",
          "name": "",
          "type": "uint256"
        }
      ],
      "stateMutability": "view",
      "type": "function"
    },
    {
      "inputs": [
        {
          "internalType": "uint256",
          "name": "",
          "type": "uint256"
        }
      ],
      "name": "nfts",
      "outputs": [
        {
          "internalType": "uint256",
          "name": "id",
          "type": "uint256"
        },
        {
          "internalType": "address",
          "name": "owner",
          "type": "address"
        },
        {
          "internalType": "bool",
          "name": "soldBefore",
          "type": "bool"
        },
        {
          "internalType": "uint256",
          "name": "price",
          "type": "uint256"
        }
      ],
      "stateMutability": "view",
      "type": "function"
    },
    {
      "inputs": [],
      "name": "owner",
      "outputs": [
        {
          "internalType": "address",
          "name": "",
          "type": "address"
        }
      ],
      "stateMutability": "view",
      "type": "function"
    },
    {
      "inputs": [
        {
          "internalType": "uint256",
          "name": "tokenId",
          "type": "uint256"
        }
      ],
      "name": "ownerOf",
      "outputs": [
        {
          "internalType": "address",
          "name": "",
          "type": "address"
        }
      ],
      "stateMutability": "view",
      "type": "function"
    },
    {
      "inputs": [],
      "name": "renounceOwnership",
      "outputs": [],
      "stateMutability": "nonpayable",
      "type": "function"
    },
    {
      "inputs": [
        {
          "internalType": "address",
          "name": "from",
          "type": "address"
        },
        {
          "internalType": "address",
          "name": "to",
          "type": "address"
        },
        {
          "internalType": "uint256",
          "name": "tokenId",
          "type": "uint256"
        }
      ],
      "name": "safeTransferFrom",
      "outputs": [],
      "stateMutability": "nonpayable",
      "type": "function"
    },
    {
      "inputs": [
        {
          "internalType": "address",
          "name": "from",
          "type": "address"
        },
        {
          "internalType": "address",
          "name": "to",
          "type": "address"
        },
        {
          "internalType": "uint256",
          "name": "tokenId",
          "type": "uint256"
        },
        {
          "internalType": "bytes",
          "name": "data",
          "type": "bytes"
        }
      ],
      "name": "safeTransferFrom",
      "outputs": [],
      "stateMutability": "nonpayable",
      "type": "function"
    },
    {
      "inputs": [
        {
          "internalType": "address",
          "name": "operator",
          "type": "address"
        },
        {
          "internalType": "bool",
          "name": "approved",
          "type": "bool"
        }
      ],
      "name": "setApprovalForAll",
      "outputs": [],
      "stateMutability": "nonpayable",
      "type": "function"
    },
    {
      "inputs": [
        {
          "internalType": "bytes4",
          "name": "interfaceId",
          "type": "bytes4"
        }
      ],
      "name": "supportsInterface",
      "outputs": [
        {
          "internalType": "bool",
          "name": "",
          "type": "bool"
        }
      ],
      "stateMutability": "view",
      "type": "function"
    },
    {
      "inputs": [],
      "name": "symbol",
      "outputs": [
        {
          "internalType": "string",
          "name": "",
          "type": "string"
        }
      ],
      "stateMutability": "view",
      "type": "function"
    },
    {
      "inputs": [
        {
          "internalType": "uint256",
          "name": "tokenId",
          "type": "uint256"
        }
      ],
      "name": "tokenURI",
      "outputs": [
        {
          "internalType": "string",
          "name": "",
          "type": "string"
        }
      ],
      "stateMutability": "view",
      "type": "function"
    },
    {
      "inputs": [
        {
          "internalType": "address",
          "name": "from",
          "type": "address"
        },
        {
          "internalType": "address",
          "name": "to",
          "type": "address"
        },
        {
          "internalType": "uint256",
          "name": "tokenId",
          "type": "uint256"
        }
      ],
      "name": "transferFrom",
      "outputs": [],
      "stateMutability": "nonpayable",
      "type": "function"
    },
    {
      "inputs": [
        {
          "internalType": "address",
          "name": "newOwner",
          "type": "address"
        }
      ],
      "name": "transferOwnership",
      "outputs": [],
      "stateMutability": "nonpayable",
      "type": "function"
    },
    {
      "inputs": [
        {
          "internalType": "uint256",
          "name": "_nft_price",
          "type": "uint256"
        },
        {
          "internalType": "string",
          "name": "_tokenURI",
          "type": "string"
        }
      ],
      "name": "mint",
      "outputs": [],
      "stateMutability": "payable",
      "type": "function"
    },
    {
      "inputs": [
        {
          "internalType": "uint256",
          "name": "_tokenID",
          "type": "uint256"
        }
      ],
      "name": "purchaseCard",
      "outputs": [],
      "stateMutability": "payable",
      "type": "function"
    }
  ],
  "bytecode": "0x608060405266071afd498d0000600a556000600b553480156200002157600080fd5b506040518060400160405280601981526020017f5475726b697368466f6f7462616c6c46656465726174696f6e000000000000008152506040518060400160405280600e81526020017f4361726420436f6c656374696f6e00000000000000000000000000000000000081525081600090816200009f919062000629565b508060019081620000b1919062000629565b5050506001600781905550620000dc620000d06200014a60201b60201c565b6200015260201b60201c565b7361cf35200b6998660f4b442ecb85151f9ca98492600960006101000a81548173ffffffffffffffffffffffffffffffffffffffff021916908373ffffffffffffffffffffffffffffffffffffffff160217905550620001443060016200021860201b60201c565b620007cd565b600033905090565b6000600860009054906101000a900473ffffffffffffffffffffffffffffffffffffffff16905081600860006101000a81548173ffffffffffffffffffffffffffffffffffffffff021916908373ffffffffffffffffffffffffffffffffffffffff1602179055508173ffffffffffffffffffffffffffffffffffffffff168173ffffffffffffffffffffffffffffffffffffffff167f8be0079c531659141344cd1fd0a4f28419497f9722a3daafe3b4186f6b6457e060405160405180910390a35050565b6200023a6200022c6200014a60201b60201c565b83836200023e60201b60201c565b5050565b8173ffffffffffffffffffffffffffffffffffffffff168373ffffffffffffffffffffffffffffffffffffffff1603620002af576040517f08c379a0000000000000000000000000000000000000000000000000000000008152600401620002a69062000771565b60405180910390fd5b80600560008573ffffffffffffffffffffffffffffffffffffffff1673ffffffffffffffffffffffffffffffffffffffff16815260200190815260200160002060008473ffffffffffffffffffffffffffffffffffffffff1673ffffffffffffffffffffffffffffffffffffffff16815260200190815260200160002060006101000a81548160ff0219169083151502179055508173ffffffffffffffffffffffffffffffffffffffff168373ffffffffffffffffffffffffffffffffffffffff167f17307eab39ab6107e8899845ad3d59bd9653f200f220920489ca2b5937696c3183604051620003a29190620007b0565b60405180910390a3505050565b600081519050919050565b7f4e487b7100000000000000000000000000000000000000000000000000000000600052604160045260246000fd5b7f4e487b7100000000000000000000000000000000000000000000000000000000600052602260045260246000fd5b600060028204905060018216806200043157607f821691505b602082108103620004475762000446620003e9565b5b50919050565b60008190508160005260206000209050919050565b60006020601f8301049050919050565b600082821b905092915050565b600060088302620004b17fffffffffffffffffffffffffffffffffffffffffffffffffffffffffffffffff8262000472565b620004bd868362000472565b95508019841693508086168417925050509392505050565b6000819050919050565b6000819050919050565b60006200050a62000504620004fe84620004d5565b620004df565b620004d5565b9050919050565b6000819050919050565b6200052683620004e9565b6200053e620005358262000511565b8484546200047f565b825550505050565b600090565b6200055562000546565b620005628184846200051b565b505050565b5b818110156200058a576200057e6000826200054b565b60018101905062000568565b5050565b601f821115620005d957620005a3816200044d565b620005ae8462000462565b81016020851015620005be578190505b620005d6620005cd8562000462565b83018262000567565b50505b505050565b600082821c905092915050565b6000620005fe60001984600802620005de565b1980831691505092915050565b6000620006198383620005eb565b9150826002028217905092915050565b6200063482620003af565b67ffffffffffffffff81111562000650576200064f620003ba565b5b6200065c825462000418565b620006698282856200058e565b600060209050601f831160018114620006a157600084156200068c578287015190505b6200069885826200060b565b86555062000708565b601f198416620006b1866200044d565b60005b82811015620006db57848901518255600182019150602085019450602081019050620006b4565b86831015620006fb5784890151620006f7601f891682620005eb565b8355505b6001600288020188555050505b505050505050565b600082825260208201905092915050565b7f4552433732313a20617070726f766520746f2063616c6c657200000000000000600082015250565b60006200075960198362000710565b9150620007668262000721565b602082019050919050565b600060208201905081810360008301526200078c816200074a565b9050919050565b60008115159050919050565b620007aa8162000793565b82525050565b6000602082019050620007c760008301846200079f565b92915050565b613e2f80620007dd6000396000f3fe6080604052600436106101395760003560e01c8063715018a6116100ab578063a54447aa1161006f578063a54447aa1461042a578063b88d4fde14610446578063c45c20a11461046f578063c87b56dd1461049a578063e985e9c5146104d7578063f2fde38b146105145761013a565b8063715018a61461037857806377097fc81461038f5780638da5cb5b146103ab57806395d89b41146103d6578063a22cb465146104015761013a565b806323b872dd116100fd57806323b872dd14610241578063265aa6211461026a57806342842e0e146102aa5780636352211e146102d35780636817c76c1461031057806370a082311461033b5761013a565b806301ffc9a71461014857806306fdde0314610185578063081812fc146101b0578063095ea7b3146101ed5780630af2c6ca146102165761013a565b5b34801561014657600080fd5b005b34801561015457600080fd5b5061016f600480360381019061016a91906126d5565b61053d565b60405161017c919061271d565b60405180910390f35b34801561019157600080fd5b5061019a61061f565b6040516101a791906127c8565b60405180910390f35b3480156101bc57600080fd5b506101d760048036038101906101d29190612820565b6106b1565b6040516101e4919061288e565b60405180910390f35b3480156101f957600080fd5b50610214600480360381019061020f91906128d5565b6106f7565b005b34801561022257600080fd5b5061022b61080e565b6040516102389190612924565b60405180910390f35b34801561024d57600080fd5b506102686004803603810190610263919061293f565b610814565b005b34801561027657600080fd5b50610291600480360381019061028c9190612820565b610874565b6040516102a19493929190612992565b60405180910390f35b3480156102b657600080fd5b506102d160048036038101906102cc919061293f565b6108d1565b005b3480156102df57600080fd5b506102fa60048036038101906102f59190612820565b6108f1565b604051610307919061288e565b60405180910390f35b34801561031c57600080fd5b50610325610977565b6040516103329190612924565b60405180910390f35b34801561034757600080fd5b50610362600480360381019061035d91906129d7565b61097d565b60405161036f9190612924565b60405180910390f35b34801561038457600080fd5b5061038d610a34565b005b6103a960048036038101906103a49190612b39565b610a48565b005b3480156103b757600080fd5b506103c0610c76565b6040516103cd919061288e565b60405180910390f35b3480156103e257600080fd5b506103eb610ca0565b6040516103f891906127c8565b60405180910390f35b34801561040d57600080fd5b5061042860048036038101906104239190612bc1565b610d32565b005b610444600480360381019061043f9190612820565b610d48565b005b34801561045257600080fd5b5061046d60048036038101906104689190612ca2565b611258565b005b34801561047b57600080fd5b506104846112ba565b6040516104919190612d46565b60405180910390f35b3480156104a657600080fd5b506104c160048036038101906104bc9190612820565b6112e0565b6040516104ce91906127c8565b60405180910390f35b3480156104e357600080fd5b506104fe60048036038101906104f99190612d61565b6113f2565b60405161050b919061271d565b60405180910390f35b34801561052057600080fd5b5061053b600480360381019061053691906129d7565b611486565b005b60007f80ac58cd000000000000000000000000000000000000000000000000000000007bffffffffffffffffffffffffffffffffffffffffffffffffffffffff1916827bffffffffffffffffffffffffffffffffffffffffffffffffffffffff1916148061060857507f5b5e139f000000000000000000000000000000000000000000000000000000007bffffffffffffffffffffffffffffffffffffffffffffffffffffffff1916827bffffffffffffffffffffffffffffffffffffffffffffffffffffffff1916145b80610618575061061782611509565b5b9050919050565b60606000805461062e90612dd0565b80601f016020809104026020016040519081016040528092919081815260200182805461065a90612dd0565b80156106a75780601f1061067c576101008083540402835291602001916106a7565b820191906000526020600020905b81548152906001019060200180831161068a57829003601f168201915b5050505050905090565b60006106bc82611573565b6004600083815260200190815260200160002060009054906101000a900473ffffffffffffffffffffffffffffffffffffffff169050919050565b6000610702826108f1565b90508073ffffffffffffffffffffffffffffffffffffffff168373ffffffffffffffffffffffffffffffffffffffff1603610772576040517f08c379a000000000000000000000000000000000000000000000000000000000815260040161076990612e73565b60405180910390fd5b8073ffffffffffffffffffffffffffffffffffffffff166107916115be565b73ffffffffffffffffffffffffffffffffffffffff1614806107c057506107bf816107ba6115be565b6113f2565b5b6107ff576040517f08c379a00000000000000000000000000000000000000000000000000000000081526004016107f690612f05565b60405180910390fd5b61080983836115c6565b505050565b600b5481565b61082561081f6115be565b8261167f565b610864576040517f08c379a000000000000000000000000000000000000000000000000000000000815260040161085b90612f97565b60405180910390fd5b61086f838383611714565b505050565b600c6020528060005260406000206000915090508060000154908060010160009054906101000a900473ffffffffffffffffffffffffffffffffffffffff16908060010160149054906101000a900460ff16908060020154905084565b6108ec83838360405180602001604052806000815250611258565b505050565b6000806108fd83611a0d565b9050600073ffffffffffffffffffffffffffffffffffffffff168173ffffffffffffffffffffffffffffffffffffffff160361096e576040517f08c379a000000000000000000000000000000000000000000000000000000000815260040161096590613003565b60405180910390fd5b80915050919050565b600a5481565b60008073ffffffffffffffffffffffffffffffffffffffff168273ffffffffffffffffffffffffffffffffffffffff16036109ed576040517f08c379a00000000000000000000000000000000000000000000000000000000081526004016109e490613095565b60405180910390fd5b600360008373ffffffffffffffffffffffffffffffffffffffff1673ffffffffffffffffffffffffffffffffffffffff168152602001908152602001600020549050919050565b610a3c611a4a565b610a466000611ac8565b565b610a50611a4a565b610a58611b8e565b600960009054906101000a900473ffffffffffffffffffffffffffffffffffffffff1673ffffffffffffffffffffffffffffffffffffffff163373ffffffffffffffffffffffffffffffffffffffff1614610ab257600080fd5b600a54341015610ac157600080fd5b6040518060800160405280600b548152602001600960009054906101000a900473ffffffffffffffffffffffffffffffffffffffff1673ffffffffffffffffffffffffffffffffffffffff16815260200160001515815260200183815250600c6000600b5481526020019081526020016000206000820151816000015560208201518160010160006101000a81548173ffffffffffffffffffffffffffffffffffffffff021916908373ffffffffffffffffffffffffffffffffffffffff16021790555060408201518160010160146101000a81548160ff021916908315150217905550606082015181600201559050507fd8747b8466a5a22cc8b22918a2085d06c352e89792fb168a3274c5a617609f00600b54600960009054906101000a900473ffffffffffffffffffffffffffffffffffffffff16600085604051610c0c9493929190613114565b60405180910390a16000600b549050600b6000815480929190610c2e90613188565b9190505550610c5f600960009054906101000a900473ffffffffffffffffffffffffffffffffffffffff1682611bdd565b610c698183611bfb565b50610c72611c68565b5050565b6000600860009054906101000a900473ffffffffffffffffffffffffffffffffffffffff16905090565b606060018054610caf90612dd0565b80601f0160208091040260200160405190810160405280929190818152602001828054610cdb90612dd0565b8015610d285780601f10610cfd57610100808354040283529160200191610d28565b820191906000526020600020905b815481529060010190602001808311610d0b57829003601f168201915b5050505050905090565b610d44610d3d6115be565b8383611c72565b5050565b610d50611b8e565b60008110158015610d635750600b548111155b610da2576040517f08c379a0000000000000000000000000000000000000000000000000000000008152600401610d999061321c565b60405180910390fd5b610dab81611dde565b610dea576040517f08c379a0000000000000000000000000000000000000000000000000000000008152600401610de19061321c565b60405180910390fd5b60003090506000610dfa836108f1565b90506000600c6000858152602001908152602001600020604051806080016040529081600082015481526020016001820160009054906101000a900473ffffffffffffffffffffffffffffffffffffffff1673ffffffffffffffffffffffffffffffffffffffff1673ffffffffffffffffffffffffffffffffffffffff1681526020016001820160149054906101000a900460ff161515151581526020016002820154815250509050600960009054906101000a900473ffffffffffffffffffffffffffffffffffffffff1673ffffffffffffffffffffffffffffffffffffffff168273ffffffffffffffffffffffffffffffffffffffff1614610f33576040517f08c379a0000000000000000000000000000000000000000000000000000000008152600401610f2a906132d4565b60405180910390fd5b8173ffffffffffffffffffffffffffffffffffffffff163373ffffffffffffffffffffffffffffffffffffffff1603610fa1576040517f08c379a0000000000000000000000000000000000000000000000000000000008152600401610f9890613340565b60405180910390fd5b8060600151341015610fe8576040517f08c379a0000000000000000000000000000000000000000000000000000000008152600401610fdf906133ac565b60405180910390fd5b600080600960009054906101000a900473ffffffffffffffffffffffffffffffffffffffff1673ffffffffffffffffffffffffffffffffffffffff1634604051611031906133fd565b60006040518083038185875af1925050503d806000811461106e576040519150601f19603f3d011682016040523d82523d6000602084013e611073565b606091505b5091509150816110b8576040517f08c379a00000000000000000000000000000000000000000000000000000000081526004016110af9061345e565b60405180910390fd5b33836020019073ffffffffffffffffffffffffffffffffffffffff16908173ffffffffffffffffffffffffffffffffffffffff1681525050600183604001901515908115158152505082600c60008881526020019081526020016000206000820151816000015560208201518160010160006101000a81548173ffffffffffffffffffffffffffffffffffffffff021916908373ffffffffffffffffffffffffffffffffffffffff16021790555060408201518160010160146101000a81548160ff021916908315150217905550606082015181600201559050508473ffffffffffffffffffffffffffffffffffffffff166342842e0e8533896040518463ffffffff1660e01b81526004016111d09392919061347e565b600060405180830381600087803b1580156111ea57600080fd5b505af11580156111fe573d6000803e3d6000fd5b505050507fe6f937eba12ea654073a42ae5c30ac6dfbd7fad6d1a1b7d1b36e4df368e979e1868460200151600186606001516040516112409493929190612992565b60405180910390a15050505050611255611c68565b50565b6112696112636115be565b8361167f565b6112a8576040517f08c379a000000000000000000000000000000000000000000000000000000000815260040161129f90612f97565b60405180910390fd5b6112b484848484611e1f565b50505050565b600960009054906101000a900473ffffffffffffffffffffffffffffffffffffffff1681565b60606112eb82611573565b600060066000848152602001908152602001600020805461130b90612dd0565b80601f016020809104026020016040519081016040528092919081815260200182805461133790612dd0565b80156113845780601f1061135957610100808354040283529160200191611384565b820191906000526020600020905b81548152906001019060200180831161136757829003601f168201915b505050505090506000611395611e7b565b905060008151036113aa5781925050506113ed565b6000825111156113df5780826040516020016113c79291906134f1565b604051602081830303815290604052925050506113ed565b6113e884611e92565b925050505b919050565b6000600560008473ffffffffffffffffffffffffffffffffffffffff1673ffffffffffffffffffffffffffffffffffffffff16815260200190815260200160002060008373ffffffffffffffffffffffffffffffffffffffff1673ffffffffffffffffffffffffffffffffffffffff16815260200190815260200160002060009054906101000a900460ff16905092915050565b61148e611a4a565b600073ffffffffffffffffffffffffffffffffffffffff168173ffffffffffffffffffffffffffffffffffffffff16036114fd576040517f08c379a00000000000000000000000000000000000000000000000000000000081526004016114f490613587565b60405180910390fd5b61150681611ac8565b50565b60007f01ffc9a7000000000000000000000000000000000000000000000000000000007bffffffffffffffffffffffffffffffffffffffffffffffffffffffff1916827bffffffffffffffffffffffffffffffffffffffffffffffffffffffff1916149050919050565b61157c81611dde565b6115bb576040517f08c379a00000000000000000000000000000000000000000000000000000000081526004016115b290613003565b60405180910390fd5b50565b600033905090565b816004600083815260200190815260200160002060006101000a81548173ffffffffffffffffffffffffffffffffffffffff021916908373ffffffffffffffffffffffffffffffffffffffff160217905550808273ffffffffffffffffffffffffffffffffffffffff16611639836108f1565b73ffffffffffffffffffffffffffffffffffffffff167f8c5be1e5ebec7d5bd14f71427d1e84f3dd0314c0f7b2291e5b200ac8c7c3b92560405160405180910390a45050565b60008061168b836108f1565b90508073ffffffffffffffffffffffffffffffffffffffff168473ffffffffffffffffffffffffffffffffffffffff1614806116cd57506116cc81856113f2565b5b8061170b57508373ffffffffffffffffffffffffffffffffffffffff166116f3846106b1565b73ffffffffffffffffffffffffffffffffffffffff16145b91505092915050565b8273ffffffffffffffffffffffffffffffffffffffff16611734826108f1565b73ffffffffffffffffffffffffffffffffffffffff161461178a576040517f08c379a000000000000000000000000000000000000000000000000000000000815260040161178190613619565b60405180910390fd5b600073ffffffffffffffffffffffffffffffffffffffff168273ffffffffffffffffffffffffffffffffffffffff16036117f9576040517f08c379a00000000000000000000000000000000000000000000000000000000081526004016117f0906136ab565b60405180910390fd5b6118068383836001611efa565b8273ffffffffffffffffffffffffffffffffffffffff16611826826108f1565b73ffffffffffffffffffffffffffffffffffffffff161461187c576040517f08c379a000000000000000000000000000000000000000000000000000000000815260040161187390613619565b60405180910390fd5b6004600082815260200190815260200160002060006101000a81549073ffffffffffffffffffffffffffffffffffffffff02191690556001600360008573ffffffffffffffffffffffffffffffffffffffff1673ffffffffffffffffffffffffffffffffffffffff168152602001908152602001600020600082825403925050819055506001600360008473ffffffffffffffffffffffffffffffffffffffff1673ffffffffffffffffffffffffffffffffffffffff16815260200190815260200160002060008282540192505081905550816002600083815260200190815260200160002060006101000a81548173ffffffffffffffffffffffffffffffffffffffff021916908373ffffffffffffffffffffffffffffffffffffffff160217905550808273ffffffffffffffffffffffffffffffffffffffff168473ffffffffffffffffffffffffffffffffffffffff167fddf252ad1be2c89b69c2b068fc378daa952ba7f163c4a11628f55a4df523b3ef60405160405180910390a4611a088383836001612020565b505050565b60006002600083815260200190815260200160002060009054906101000a900473ffffffffffffffffffffffffffffffffffffffff169050919050565b611a526115be565b73ffffffffffffffffffffffffffffffffffffffff16611a70610c76565b73ffffffffffffffffffffffffffffffffffffffff1614611ac6576040517f08c379a0000000000000000000000000000000000000000000000000000000008152600401611abd90613717565b60405180910390fd5b565b6000600860009054906101000a900473ffffffffffffffffffffffffffffffffffffffff16905081600860006101000a81548173ffffffffffffffffffffffffffffffffffffffff021916908373ffffffffffffffffffffffffffffffffffffffff1602179055508173ffffffffffffffffffffffffffffffffffffffff168173ffffffffffffffffffffffffffffffffffffffff167f8be0079c531659141344cd1fd0a4f28419497f9722a3daafe3b4186f6b6457e060405160405180910390a35050565b600260075403611bd3576040517f08c379a0000000000000000000000000000000000000000000000000000000008152600401611bca90613783565b60405180910390fd5b6002600781905550565b611bf7828260405180602001604052806000815250612026565b5050565b611c0482611dde565b611c43576040517f08c379a0000000000000000000000000000000000000000000000000000000008152600401611c3a90613815565b60405180910390fd5b80600660008481526020019081526020016000209081611c6391906139d7565b505050565b6001600781905550565b8173ffffffffffffffffffffffffffffffffffffffff168373ffffffffffffffffffffffffffffffffffffffff1603611ce0576040517f08c379a0000000000000000000000000000000000000000000000000000000008152600401611cd790613af5565b60405180910390fd5b80600560008573ffffffffffffffffffffffffffffffffffffffff1673ffffffffffffffffffffffffffffffffffffffff16815260200190815260200160002060008473ffffffffffffffffffffffffffffffffffffffff1673ffffffffffffffffffffffffffffffffffffffff16815260200190815260200160002060006101000a81548160ff0219169083151502179055508173ffffffffffffffffffffffffffffffffffffffff168373ffffffffffffffffffffffffffffffffffffffff167f17307eab39ab6107e8899845ad3d59bd9653f200f220920489ca2b5937696c3183604051611dd1919061271d565b60405180910390a3505050565b60008073ffffffffffffffffffffffffffffffffffffffff16611e0083611a0d565b73ffffffffffffffffffffffffffffffffffffffff1614159050919050565b611e2a848484611714565b611e3684848484612081565b611e75576040517f08c379a0000000000000000000000000000000000000000000000000000000008152600401611e6c90613b87565b60405180910390fd5b50505050565b606060405180602001604052806000815250905090565b6060611e9d82611573565b6000611ea7611e7b565b90506000815111611ec75760405180602001604052806000815250611ef2565b80611ed184612208565b604051602001611ee29291906134f1565b6040516020818303038152906040525b915050919050565b600181111561201a57600073ffffffffffffffffffffffffffffffffffffffff168473ffffffffffffffffffffffffffffffffffffffff1614611f8e5780600360008673ffffffffffffffffffffffffffffffffffffffff1673ffffffffffffffffffffffffffffffffffffffff1681526020019081526020016000206000828254611f869190613ba7565b925050819055505b600073ffffffffffffffffffffffffffffffffffffffff168373ffffffffffffffffffffffffffffffffffffffff16146120195780600360008573ffffffffffffffffffffffffffffffffffffffff1673ffffffffffffffffffffffffffffffffffffffff16815260200190815260200160002060008282546120119190613bdb565b925050819055505b5b50505050565b50505050565b61203083836122d6565b61203d6000848484612081565b61207c576040517f08c379a000000000000000000000000000000000000000000000000000000000815260040161207390613b87565b60405180910390fd5b505050565b60006120a28473ffffffffffffffffffffffffffffffffffffffff166124f3565b156121fb578373ffffffffffffffffffffffffffffffffffffffff1663150b7a026120cb6115be565b8786866040518563ffffffff1660e01b81526004016120ed9493929190613c64565b6020604051808303816000875af192505050801561212957506040513d601f19601f820116820180604052508101906121269190613cc5565b60015b6121ab573d8060008114612159576040519150601f19603f3d011682016040523d82523d6000602084013e61215e565b606091505b5060008151036121a3576040517f08c379a000000000000000000000000000000000000000000000000000000000815260040161219a90613b87565b60405180910390fd5b805181602001fd5b63150b7a0260e01b7bffffffffffffffffffffffffffffffffffffffffffffffffffffffff1916817bffffffffffffffffffffffffffffffffffffffffffffffffffffffff191614915050612200565b600190505b949350505050565b60606000600161221784612516565b01905060008167ffffffffffffffff81111561223657612235612a0e565b5b6040519080825280601f01601f1916602001820160405280156122685781602001600182028036833780820191505090505b509050600082602001820190505b6001156122cb578080600190039150507f3031323334353637383961626364656600000000000000000000000000000000600a86061a8153600a85816122bf576122be613cf2565b5b04945060008503612276575b819350505050919050565b600073ffffffffffffffffffffffffffffffffffffffff168273ffffffffffffffffffffffffffffffffffffffff1603612345576040517f08c379a000000000000000000000000000000000000000000000000000000000815260040161233c90613d6d565b60405180910390fd5b61234e81611dde565b1561238e576040517f08c379a000000000000000000000000000000000000000000000000000000000815260040161238590613dd9565b60405180910390fd5b61239c600083836001611efa565b6123a581611dde565b156123e5576040517f08c379a00000000000000000000000000000000000000000000000000000000081526004016123dc90613dd9565b60405180910390fd5b6001600360008473ffffffffffffffffffffffffffffffffffffffff1673ffffffffffffffffffffffffffffffffffffffff16815260200190815260200160002060008282540192505081905550816002600083815260200190815260200160002060006101000a81548173ffffffffffffffffffffffffffffffffffffffff021916908373ffffffffffffffffffffffffffffffffffffffff160217905550808273ffffffffffffffffffffffffffffffffffffffff16600073ffffffffffffffffffffffffffffffffffffffff167fddf252ad1be2c89b69c2b068fc378daa952ba7f163c4a11628f55a4df523b3ef60405160405180910390a46124ef600083836001612020565b5050565b6000808273ffffffffffffffffffffffffffffffffffffffff163b119050919050565b600080600090507a184f03e93ff9f4daa797ed6e38ed64bf6a1f0100000000000000008310612574577a184f03e93ff9f4daa797ed6e38ed64bf6a1f010000000000000000838161256a57612569613cf2565b5b0492506040810190505b6d04ee2d6d415b85acef810000000083106125b1576d04ee2d6d415b85acef810000000083816125a7576125a6613cf2565b5b0492506020810190505b662386f26fc1000083106125e057662386f26fc1000083816125d6576125d5613cf2565b5b0492506010810190505b6305f5e1008310612609576305f5e10083816125ff576125fe613cf2565b5b0492506008810190505b612710831061262e57612710838161262457612623613cf2565b5b0492506004810190505b60648310612651576064838161264757612646613cf2565b5b0492506002810190505b600a8310612660576001810190505b80915050919050565b6000604051905090565b600080fd5b600080fd5b60007fffffffff0000000000000000000000000000000000000000000000000000000082169050919050565b6126b28161267d565b81146126bd57600080fd5b50565b6000813590506126cf816126a9565b92915050565b6000602082840312156126eb576126ea612673565b5b60006126f9848285016126c0565b91505092915050565b60008115159050919050565b61271781612702565b82525050565b6000602082019050612732600083018461270e565b92915050565b600081519050919050565b600082825260208201905092915050565b60005b83811015612772578082015181840152602081019050612757565b60008484015250505050565b6000601f19601f8301169050919050565b600061279a82612738565b6127a48185612743565b93506127b4818560208601612754565b6127bd8161277e565b840191505092915050565b600060208201905081810360008301526127e2818461278f565b905092915050565b6000819050919050565b6127fd816127ea565b811461280857600080fd5b50565b60008135905061281a816127f4565b92915050565b60006020828403121561283657612835612673565b5b60006128448482850161280b565b91505092915050565b600073ffffffffffffffffffffffffffffffffffffffff82169050919050565b60006128788261284d565b9050919050565b6128888161286d565b82525050565b60006020820190506128a3600083018461287f565b92915050565b6128b28161286d565b81146128bd57600080fd5b50565b6000813590506128cf816128a9565b92915050565b600080604083850312156128ec576128eb612673565b5b60006128fa858286016128c0565b925050602061290b8582860161280b565b9150509250929050565b61291e816127ea565b82525050565b60006020820190506129396000830184612915565b92915050565b60008060006060848603121561295857612957612673565b5b6000612966868287016128c0565b9350506020612977868287016128c0565b92505060406129888682870161280b565b9150509250925092565b60006080820190506129a76000830187612915565b6129b4602083018661287f565b6129c1604083018561270e565b6129ce6060830184612915565b95945050505050565b6000602082840312156129ed576129ec612673565b5b60006129fb848285016128c0565b91505092915050565b600080fd5b600080fd5b7f4e487b7100000000000000000000000000000000000000000000000000000000600052604160045260246000fd5b612a468261277e565b810181811067ffffffffffffffff82111715612a6557612a64612a0e565b5b80604052505050565b6000612a78612669565b9050612a848282612a3d565b919050565b600067ffffffffffffffff821115612aa457612aa3612a0e565b5b612aad8261277e565b9050602081019050919050565b82818337600083830152505050565b6000612adc612ad784612a89565b612a6e565b905082815260208101848484011115612af857612af7612a09565b5b612b03848285612aba565b509392505050565b600082601f830112612b2057612b1f612a04565b5b8135612b30848260208601612ac9565b91505092915050565b60008060408385031215612b5057612b4f612673565b5b6000612b5e8582860161280b565b925050602083013567ffffffffffffffff811115612b7f57612b7e612678565b5b612b8b85828601612b0b565b9150509250929050565b612b9e81612702565b8114612ba957600080fd5b50565b600081359050612bbb81612b95565b92915050565b60008060408385031215612bd857612bd7612673565b5b6000612be6858286016128c0565b9250506020612bf785828601612bac565b9150509250929050565b600067ffffffffffffffff821115612c1c57612c1b612a0e565b5b612c258261277e565b9050602081019050919050565b6000612c45612c4084612c01565b612a6e565b905082815260208101848484011115612c6157612c60612a09565b5b612c6c848285612aba565b509392505050565b600082601f830112612c8957612c88612a04565b5b8135612c99848260208601612c32565b91505092915050565b60008060008060808587031215612cbc57612cbb612673565b5b6000612cca878288016128c0565b9450506020612cdb878288016128c0565b9350506040612cec8782880161280b565b925050606085013567ffffffffffffffff811115612d0d57612d0c612678565b5b612d1987828801612c74565b91505092959194509250565b6000612d308261284d565b9050919050565b612d4081612d25565b82525050565b6000602082019050612d5b6000830184612d37565b92915050565b60008060408385031215612d7857612d77612673565b5b6000612d86858286016128c0565b9250506020612d97858286016128c0565b9150509250929050565b7f4e487b7100000000000000000000000000000000000000000000000000000000600052602260045260246000fd5b60006002820490506001821680612de857607f821691505b602082108103612dfb57612dfa612da1565b5b50919050565b7f4552433732313a20617070726f76616c20746f2063757272656e74206f776e6560008201527f7200000000000000000000000000000000000000000000000000000000000000602082015250565b6000612e5d602183612743565b9150612e6882612e01565b604082019050919050565b60006020820190508181036000830152612e8c81612e50565b9050919050565b7f4552433732313a20617070726f76652063616c6c6572206973206e6f7420746f60008201527f6b656e206f776e6572206f7220617070726f76656420666f7220616c6c000000602082015250565b6000612eef603d83612743565b9150612efa82612e93565b604082019050919050565b60006020820190508181036000830152612f1e81612ee2565b9050919050565b7f4552433732313a2063616c6c6572206973206e6f7420746f6b656e206f776e6560008201527f72206f7220617070726f76656400000000000000000000000000000000000000602082015250565b6000612f81602d83612743565b9150612f8c82612f25565b604082019050919050565b60006020820190508181036000830152612fb081612f74565b9050919050565b7f4552433732313a20696e76616c696420746f6b656e2049440000000000000000600082015250565b6000612fed601883612743565b9150612ff882612fb7565b602082019050919050565b6000602082019050818103600083015261301c81612fe0565b9050919050565b7f4552433732313a2061646472657373207a65726f206973206e6f74206120766160008201527f6c6964206f776e65720000000000000000000000000000000000000000000000602082015250565b600061307f602983612743565b915061308a82613023565b604082019050919050565b600060208201905081810360008301526130ae81613072565b9050919050565b6000819050919050565b60006130da6130d56130d08461284d565b6130b5565b61284d565b9050919050565b60006130ec826130bf565b9050919050565b60006130fe826130e1565b9050919050565b61310e816130f3565b82525050565b60006080820190506131296000830187612915565b6131366020830186613105565b613143604083018561270e565b6131506060830184612915565b95945050505050565b7f4e487b7100000000000000000000000000000000000000000000000000000000600052601160045260246000fd5b6000613193826127ea565b91507fffffffffffffffffffffffffffffffffffffffffffffffffffffffffffffffff82036131c5576131c4613159565b5b600182019050919050565b7f496e76616c696420546f6b656e20494400000000000000000000000000000000600082015250565b6000613206601083612743565b9150613211826131d0565b602082019050919050565b60006020820190508181036000830152613235816131f9565b9050919050565b7f496e76616c6964206f776e65722c206e667420646f6573206e6f742062656c6f60008201527f6e6720746f20746865205475726b69736820666f6f7462616c6c206173736f6360208201527f696174696f6e0000000000000000000000000000000000000000000000000000604082015250565b60006132be604683612743565b91506132c98261323c565b606082019050919050565b600060208201905081810360008301526132ed816132b1565b9050919050565b7f53656c6c65722063616e6e6f757420707572636861736520616e204e46540000600082015250565b600061332a601e83612743565b9150613335826132f4565b602082019050919050565b600060208201905081810360008301526133598161331d565b9050919050565b7f556e73756666696369656e742066756e64730000000000000000000000000000600082015250565b6000613396601283612743565b91506133a182613360565b602082019050919050565b600060208201905081810360008301526133c581613389565b9050919050565b600081905092915050565b50565b60006133e76000836133cc565b91506133f2826133d7565b600082019050919050565b6000613408826133da565b9150819050919050565b7f4661696c656420746f2073656e64204574686572000000000000000000000000600082015250565b6000613448601483612743565b915061345382613412565b602082019050919050565b600060208201905081810360008301526134778161343b565b9050919050565b6000606082019050613493600083018661287f565b6134a0602083018561287f565b6134ad6040830184612915565b949350505050565b600081905092915050565b60006134cb82612738565b6134d581856134b5565b93506134e5818560208601612754565b80840191505092915050565b60006134fd82856134c0565b915061350982846134c0565b91508190509392505050565b7f4f776e61626c653a206e6577206f776e657220697320746865207a65726f206160008201527f6464726573730000000000000000000000000000000000000000000000000000602082015250565b6000613571602683612743565b915061357c82613515565b604082019050919050565b600060208201905081810360008301526135a081613564565b9050919050565b7f4552433732313a207472616e736665722066726f6d20696e636f72726563742060008201527f6f776e6572000000000000000000000000000000000000000000000000000000602082015250565b6000613603602583612743565b915061360e826135a7565b604082019050919050565b60006020820190508181036000830152613632816135f6565b9050919050565b7f4552433732313a207472616e7366657220746f20746865207a65726f2061646460008201527f7265737300000000000000000000000000000000000000000000000000000000602082015250565b6000613695602483612743565b91506136a082613639565b604082019050919050565b600060208201905081810360008301526136c481613688565b9050919050565b7f4f776e61626c653a2063616c6c6572206973206e6f7420746865206f776e6572600082015250565b6000613701602083612743565b915061370c826136cb565b602082019050919050565b60006020820190508181036000830152613730816136f4565b9050919050565b7f5265656e7472616e637947756172643a207265656e7472616e742063616c6c00600082015250565b600061376d601f83612743565b915061377882613737565b602082019050919050565b6000602082019050818103600083015261379c81613760565b9050919050565b7f45524337323155524953746f726167653a2055524920736574206f66206e6f6e60008201527f6578697374656e7420746f6b656e000000000000000000000000000000000000602082015250565b60006137ff602e83612743565b915061380a826137a3565b604082019050919050565b6000602082019050818103600083015261382e816137f2565b9050919050565b60008190508160005260206000209050919050565b60006020601f8301049050919050565b600082821b905092915050565b6000600883026138977fffffffffffffffffffffffffffffffffffffffffffffffffffffffffffffffff8261385a565b6138a1868361385a565b95508019841693508086168417925050509392505050565b60006138d46138cf6138ca846127ea565b6130b5565b6127ea565b9050919050565b6000819050919050565b6138ee836138b9565b6139026138fa826138db565b848454613867565b825550505050565b600090565b61391761390a565b6139228184846138e5565b505050565b5b818110156139465761393b60008261390f565b600181019050613928565b5050565b601f82111561398b5761395c81613835565b6139658461384a565b81016020851015613974578190505b6139886139808561384a565b830182613927565b50505b505050565b600082821c905092915050565b60006139ae60001984600802613990565b1980831691505092915050565b60006139c7838361399d565b9150826002028217905092915050565b6139e082612738565b67ffffffffffffffff8111156139f9576139f8612a0e565b5b613a038254612dd0565b613a0e82828561394a565b600060209050601f831160018114613a415760008415613a2f578287015190505b613a3985826139bb565b865550613aa1565b601f198416613a4f86613835565b60005b82811015613a7757848901518255600182019150602085019450602081019050613a52565b86831015613a945784890151613a90601f89168261399d565b8355505b6001600288020188555050505b505050505050565b7f4552433732313a20617070726f766520746f2063616c6c657200000000000000600082015250565b6000613adf601983612743565b9150613aea82613aa9565b602082019050919050565b60006020820190508181036000830152613b0e81613ad2565b9050919050565b7f4552433732313a207472616e7366657220746f206e6f6e20455243373231526560008201527f63656976657220696d706c656d656e7465720000000000000000000000000000602082015250565b6000613b71603283612743565b9150613b7c82613b15565b604082019050919050565b60006020820190508181036000830152613ba081613b64565b9050919050565b6000613bb2826127ea565b9150613bbd836127ea565b9250828203905081811115613bd557613bd4613159565b5b92915050565b6000613be6826127ea565b9150613bf1836127ea565b9250828201905080821115613c0957613c08613159565b5b92915050565b600081519050919050565b600082825260208201905092915050565b6000613c3682613c0f565b613c408185613c1a565b9350613c50818560208601612754565b613c598161277e565b840191505092915050565b6000608082019050613c79600083018761287f565b613c86602083018661287f565b613c936040830185612915565b8181036060830152613ca58184613c2b565b905095945050505050565b600081519050613cbf816126a9565b92915050565b600060208284031215613cdb57613cda612673565b5b6000613ce984828501613cb0565b91505092915050565b7f4e487b7100000000000000000000000000000000000000000000000000000000600052601260045260246000fd5b7f4552433732313a206d696e7420746f20746865207a65726f2061646472657373600082015250565b6000613d57602083612743565b9150613d6282613d21565b602082019050919050565b60006020820190508181036000830152613d8681613d4a565b9050919050565b7f4552433732313a20746f6b656e20616c7265616479206d696e74656400000000600082015250565b6000613dc3601c83612743565b9150613dce82613d8d565b602082019050919050565b60006020820190508181036000830152613df281613db6565b905091905056fea264697066735822122003933f650e780f0b6cc07757c04951758b1910b9401adbe71254bc152ba0bb5464736f6c63430008110033",
  "immutableReferences": {},
  "source": "// SPDX-License-Identifier: MIT\r\npragma solidity >=0.4.22 <0.9.0;\r\n\r\nimport \"@openzeppelin/contracts//security/ReentrancyGuard.sol\";\r\nimport \"@openzeppelin/contracts/access/Ownable.sol\";\r\nimport \"@openzeppelin/contracts/token/ERC721/extensions/ERC721URIStorage.sol\";\r\n\r\n/// @notice Smart Contract for the nft marketplace of the turkish football assocition\r\n/// @dev Must receive payments for nft's (sell nfts), verify their creators id, create nfts\r\n\r\ncontract TurkishFootballCards is ERC721URIStorage, ReentrancyGuard, Ownable\r\n{\r\n    address payable public TF_owner;\r\n    uint256 public mintPrice = 0.002 ether;\r\n    uint256 public nftCount = 0;\r\n    mapping(uint256 => card) public nfts;\r\n\r\n    \r\n    struct card\r\n    {\r\n        uint256 id;\r\n        address owner;\r\n        bool soldBefore; \r\n        uint256 price;\r\n    }\r\n\r\n    event nft_sold\r\n    (\r\n        uint256 id,\r\n        address owner,\r\n        bool soldBefore,\r\n        uint256 price\r\n    );\r\n\r\n    event nft_created(\r\n        uint256 id,\r\n        address owner,\r\n        bool soldBefore,\r\n        uint256 price\r\n    );\r\n\r\n\r\n    constructor() ERC721('TurkishFootballFederation','Card Colection')\r\n    {\r\n        TF_owner = payable(0x61cf35200B6998660f4b442Ecb85151F9CA98492); //address of the nft_minter/aka TFF\r\n       \r\n        setApprovalForAll(address(this),true); // aproove the contract to be able to admin the minted nfts\r\n        //nftMinter = 'address of the turkish football federation';     \r\n        //call the constructor of the ERC721\r\n    }\r\n\r\n    \r\n    function mint(uint256 _nft_price, string memory _tokenURI) external onlyOwner nonReentrant payable \r\n    {\r\n        //this funtion is responsible for the minting of new coins\r\n        //only the Turkish Football federation is supposed to be able to mint\r\n        require(msg.sender == TF_owner);\r\n        //the message value should be equal to the minting cost\r\n        require(msg.value >= mintPrice);\r\n        //creating the new nft in the marketplace\r\n        \r\n        nfts[nftCount] = card({id: nftCount, owner: TF_owner, soldBefore: false, price: _nft_price});\r\n        emit nft_created(nftCount, TF_owner, false, _nft_price); //event of the creation on the marketplace\r\n        //actually creating the nft in the\r\n        uint256 TokenID = nftCount;\r\n        nftCount++;\r\n        //mint(TF_owner);\r\n        _safeMint(TF_owner, TokenID); //emits a {Transfer} event\r\n        _setTokenURI(TokenID, _tokenURI);\r\n\r\n    }\r\n\r\n    function purchaseCard(uint256 _tokenID) external nonReentrant payable\r\n    {\r\n        //check correct id\r\n        require(_tokenID >= 0 && _tokenID <= nftCount, 'Invalid Token ID' );\r\n        require(_exists(_tokenID),'Invalid Token ID' );\r\n        address contractsAddress = address(this);\r\n        \r\n\r\n        //load nft information\r\n        address owner = ownerOf(_tokenID);\r\n        card memory _cardToSell = nfts[_tokenID];\r\n        require(owner == TF_owner, \"Invalid owner, nft does not belong to the Turkish football association\");\r\n        \r\n        //check if owner is the seller\r\n        require(msg.sender != owner, 'Seller cannout purchase an NFT');\r\n        //check for funds \r\n        require(msg.value >= _cardToSell.price, \"Unsufficient funds\");\r\n        \r\n        //tranfer the funds (fund value can change after calling external functions, aka the safeTransferFrom)\r\n        (bool transfer, bytes memory data) = TF_owner.call{value: msg.value}(\"\");\r\n        require(transfer, 'Failed to send Ether');\r\n        //transfer the nft\r\n                //update the cards info\r\n        _cardToSell.owner = msg.sender;\r\n        _cardToSell.soldBefore = true;\r\n        nfts[_tokenID] = _cardToSell;\r\n        ERC721(contractsAddress).safeTransferFrom(owner, msg.sender, _tokenID); //calls the transfer function with the contracts address(it's an authorized operator)\r\n        \r\n        //event to log this, maybe not do it, cause the safeTransferFrom function already emits a {Transfer} event\r\n        emit nft_sold(_tokenID, _cardToSell.owner, true, _cardToSell.price);\r\n\r\n    }\r\n\r\n    fallback() external\r\n    {\r\n\r\n    }\r\n\r\n    \r\n}\r\n",
  "sourcePath": "C:\\Users\\ricar\\OneDrive\\22_23 1 Semestre\\Blockchain\\Blockchain Project\\Projeto CS48001\\CS48001-NFT-marketplace\\contracts\\NftMarketplace.sol",
  "compiler": {
    "name": "solc",
    "version": "0.8.17+commit.8df45f5f.Emscripten.clang"
  },
  "schemaVersion": "3.4.11",
  "updatedAt": "2023-01-15T21:42:50.026Z",
  "devdoc": {
    "details": "Must receive payments for nft's (sell nfts), verify their creators id, create nfts",
    "kind": "dev",
    "methods": {
      "approve(address,uint256)": {
        "details": "See {IERC721-approve}."
      },
      "balanceOf(address)": {
        "details": "See {IERC721-balanceOf}."
      },
      "getApproved(uint256)": {
        "details": "See {IERC721-getApproved}."
      },
      "isApprovedForAll(address,address)": {
        "details": "See {IERC721-isApprovedForAll}."
      },
      "name()": {
        "details": "See {IERC721Metadata-name}."
      },
      "owner()": {
        "details": "Returns the address of the current owner."
      },
      "ownerOf(uint256)": {
        "details": "See {IERC721-ownerOf}."
      },
      "renounceOwnership()": {
        "details": "Leaves the contract without owner. It will not be possible to call `onlyOwner` functions anymore. Can only be called by the current owner. NOTE: Renouncing ownership will leave the contract without an owner, thereby removing any functionality that is only available to the owner."
      },
      "safeTransferFrom(address,address,uint256)": {
        "details": "See {IERC721-safeTransferFrom}."
      },
      "safeTransferFrom(address,address,uint256,bytes)": {
        "details": "See {IERC721-safeTransferFrom}."
      },
      "setApprovalForAll(address,bool)": {
        "details": "See {IERC721-setApprovalForAll}."
      },
      "supportsInterface(bytes4)": {
        "details": "See {IERC165-supportsInterface}."
      },
      "symbol()": {
        "details": "See {IERC721Metadata-symbol}."
      },
      "tokenURI(uint256)": {
        "details": "See {IERC721Metadata-tokenURI}."
      },
      "transferFrom(address,address,uint256)": {
        "details": "See {IERC721-transferFrom}."
      },
      "transferOwnership(address)": {
        "details": "Transfers ownership of the contract to a new account (`newOwner`). Can only be called by the current owner."
      }
    },
    "version": 1
  },
  "userdoc": {
    "kind": "user",
    "methods": {},
    "notice": "Smart Contract for the nft marketplace of the turkish football assocition",
    "version": 1
  }
}